{
  "_format": "hh-sol-artifact-1",
  "contractName": "HospitalToken",
  "sourceName": "contracts/MyNFT.sol",
  "abi": [
    {
      "inputs": [],
      "stateMutability": "nonpayable",
      "type": "constructor"
    },
    {
      "inputs": [
        {
          "internalType": "address",
          "name": "sender",
          "type": "address"
        },
        {
          "internalType": "uint256",
          "name": "tokenId",
          "type": "uint256"
        },
        {
          "internalType": "address",
          "name": "owner",
          "type": "address"
        }
      ],
      "name": "ERC721IncorrectOwner",
      "type": "error"
    },
    {
      "inputs": [
        {
          "internalType": "address",
          "name": "operator",
          "type": "address"
        },
        {
          "internalType": "uint256",
          "name": "tokenId",
          "type": "uint256"
        }
      ],
      "name": "ERC721InsufficientApproval",
      "type": "error"
    },
    {
      "inputs": [
        {
          "internalType": "address",
          "name": "approver",
          "type": "address"
        }
      ],
      "name": "ERC721InvalidApprover",
      "type": "error"
    },
    {
      "inputs": [
        {
          "internalType": "address",
          "name": "operator",
          "type": "address"
        }
      ],
      "name": "ERC721InvalidOperator",
      "type": "error"
    },
    {
      "inputs": [
        {
          "internalType": "address",
          "name": "owner",
          "type": "address"
        }
      ],
      "name": "ERC721InvalidOwner",
      "type": "error"
    },
    {
      "inputs": [
        {
          "internalType": "address",
          "name": "receiver",
          "type": "address"
        }
      ],
      "name": "ERC721InvalidReceiver",
      "type": "error"
    },
    {
      "inputs": [
        {
          "internalType": "address",
          "name": "sender",
          "type": "address"
        }
      ],
      "name": "ERC721InvalidSender",
      "type": "error"
    },
    {
      "inputs": [
        {
          "internalType": "uint256",
          "name": "tokenId",
          "type": "uint256"
        }
      ],
      "name": "ERC721NonexistentToken",
      "type": "error"
    },
    {
      "anonymous": false,
      "inputs": [
        {
          "indexed": true,
          "internalType": "address",
          "name": "owner",
          "type": "address"
        },
        {
          "indexed": true,
          "internalType": "address",
          "name": "approved",
          "type": "address"
        },
        {
          "indexed": true,
          "internalType": "uint256",
          "name": "tokenId",
          "type": "uint256"
        }
      ],
      "name": "Approval",
      "type": "event"
    },
    {
      "anonymous": false,
      "inputs": [
        {
          "indexed": true,
          "internalType": "address",
          "name": "owner",
          "type": "address"
        },
        {
          "indexed": true,
          "internalType": "address",
          "name": "operator",
          "type": "address"
        },
        {
          "indexed": false,
          "internalType": "bool",
          "name": "approved",
          "type": "bool"
        }
      ],
      "name": "ApprovalForAll",
      "type": "event"
    },
    {
      "anonymous": false,
      "inputs": [
        {
          "indexed": true,
          "internalType": "address",
          "name": "from",
          "type": "address"
        },
        {
          "indexed": true,
          "internalType": "address",
          "name": "to",
          "type": "address"
        },
        {
          "indexed": true,
          "internalType": "uint256",
          "name": "tokenId",
          "type": "uint256"
        }
      ],
      "name": "Transfer",
      "type": "event"
    },
    {
      "inputs": [],
      "name": "admin",
      "outputs": [
        {
          "internalType": "address",
          "name": "",
          "type": "address"
        }
      ],
      "stateMutability": "view",
      "type": "function"
    },
    {
      "inputs": [
        {
          "internalType": "address",
          "name": "to",
          "type": "address"
        },
        {
          "internalType": "uint256",
          "name": "tokenId",
          "type": "uint256"
        }
      ],
      "name": "approve",
      "outputs": [],
      "stateMutability": "nonpayable",
      "type": "function"
    },
    {
      "inputs": [
        {
          "internalType": "address",
          "name": "user",
          "type": "address"
        }
      ],
      "name": "balance",
      "outputs": [
        {
          "internalType": "uint256",
          "name": "",
          "type": "uint256"
        }
      ],
      "stateMutability": "view",
      "type": "function"
    },
    {
      "inputs": [
        {
          "internalType": "address",
          "name": "owner",
          "type": "address"
        }
      ],
      "name": "balanceOf",
      "outputs": [
        {
          "internalType": "uint256",
          "name": "",
          "type": "uint256"
        }
      ],
      "stateMutability": "view",
      "type": "function"
    },
    {
      "inputs": [
        {
          "internalType": "address",
          "name": "from",
          "type": "address"
        }
      ],
      "name": "burn",
      "outputs": [],
      "stateMutability": "nonpayable",
      "type": "function"
    },
    {
      "inputs": [
        {
          "internalType": "uint256",
          "name": "tokenId",
          "type": "uint256"
        }
      ],
      "name": "getApproved",
      "outputs": [
        {
          "internalType": "address",
          "name": "",
          "type": "address"
        }
      ],
      "stateMutability": "view",
      "type": "function"
    },
    {
      "inputs": [
        {
          "internalType": "address",
          "name": "owner",
          "type": "address"
        },
        {
          "internalType": "address",
          "name": "operator",
          "type": "address"
        }
      ],
      "name": "isApprovedForAll",
      "outputs": [
        {
          "internalType": "bool",
          "name": "",
          "type": "bool"
        }
      ],
      "stateMutability": "view",
      "type": "function"
    },
    {
      "inputs": [
        {
          "internalType": "address",
          "name": "to",
          "type": "address"
        }
      ],
      "name": "mint",
      "outputs": [],
      "stateMutability": "nonpayable",
      "type": "function"
    },
    {
      "inputs": [],
      "name": "name",
      "outputs": [
        {
          "internalType": "string",
          "name": "",
          "type": "string"
        }
      ],
      "stateMutability": "view",
      "type": "function"
    },
    {
      "inputs": [
        {
          "internalType": "uint256",
          "name": "tokenId",
          "type": "uint256"
        }
      ],
      "name": "ownerOf",
      "outputs": [
        {
          "internalType": "address",
          "name": "",
          "type": "address"
        }
      ],
      "stateMutability": "view",
      "type": "function"
    },
    {
      "inputs": [
        {
          "internalType": "address",
          "name": "from",
          "type": "address"
        },
        {
          "internalType": "address",
          "name": "to",
          "type": "address"
        },
        {
          "internalType": "uint256",
          "name": "tokenId",
          "type": "uint256"
        }
      ],
      "name": "safeTransferFrom",
      "outputs": [],
      "stateMutability": "nonpayable",
      "type": "function"
    },
    {
      "inputs": [
        {
          "internalType": "address",
          "name": "from",
          "type": "address"
        },
        {
          "internalType": "address",
          "name": "to",
          "type": "address"
        },
        {
          "internalType": "uint256",
          "name": "tokenId",
          "type": "uint256"
        },
        {
          "internalType": "bytes",
          "name": "data",
          "type": "bytes"
        }
      ],
      "name": "safeTransferFrom",
      "outputs": [],
      "stateMutability": "nonpayable",
      "type": "function"
    },
    {
      "inputs": [
        {
          "internalType": "address",
          "name": "operator",
          "type": "address"
        },
        {
          "internalType": "bool",
          "name": "approved",
          "type": "bool"
        }
      ],
      "name": "setApprovalForAll",
      "outputs": [],
      "stateMutability": "nonpayable",
      "type": "function"
    },
    {
      "inputs": [
        {
          "internalType": "bytes4",
          "name": "interfaceId",
          "type": "bytes4"
        }
      ],
      "name": "supportsInterface",
      "outputs": [
        {
          "internalType": "bool",
          "name": "",
          "type": "bool"
        }
      ],
      "stateMutability": "view",
      "type": "function"
    },
    {
      "inputs": [],
      "name": "symbol",
      "outputs": [
        {
          "internalType": "string",
          "name": "",
          "type": "string"
        }
      ],
      "stateMutability": "view",
      "type": "function"
    },
    {
      "inputs": [
        {
          "internalType": "uint256",
          "name": "tokenId",
          "type": "uint256"
        }
      ],
      "name": "tokenURI",
      "outputs": [
        {
          "internalType": "string",
          "name": "",
          "type": "string"
        }
      ],
      "stateMutability": "view",
      "type": "function"
    },
    {
      "inputs": [],
      "name": "totalSupply",
      "outputs": [
        {
          "internalType": "uint256",
          "name": "",
          "type": "uint256"
        }
      ],
      "stateMutability": "view",
      "type": "function"
    },
    {
      "inputs": [
        {
          "internalType": "address",
          "name": "from",
          "type": "address"
        },
        {
          "internalType": "address",
          "name": "to",
          "type": "address"
        },
        {
          "internalType": "uint256",
          "name": "tokenId",
          "type": "uint256"
        }
      ],
      "name": "transferFrom",
      "outputs": [],
      "stateMutability": "nonpayable",
      "type": "function"
    }
  ],
  "bytecode": "0x60806040523480156200001157600080fd5b506040518060400160405280600481526020017f6e616d65000000000000000000000000000000000000000000000000000000008152506040518060400160405280600681526020017f73796d626f6c000000000000000000000000000000000000000000000000000081525081600090816200008f91906200036d565b508060019081620000a191906200036d565b505050600060068190555033600860006101000a81548173ffffffffffffffffffffffffffffffffffffffff021916908373ffffffffffffffffffffffffffffffffffffffff16021790555062000454565b600081519050919050565b7f4e487b7100000000000000000000000000000000000000000000000000000000600052604160045260246000fd5b7f4e487b7100000000000000000000000000000000000000000000000000000000600052602260045260246000fd5b600060028204905060018216806200017557607f821691505b6020821081036200018b576200018a6200012d565b5b50919050565b60008190508160005260206000209050919050565b60006020601f8301049050919050565b600082821b905092915050565b600060088302620001f57fffffffffffffffffffffffffffffffffffffffffffffffffffffffffffffffff82620001b6565b620002018683620001b6565b95508019841693508086168417925050509392505050565b6000819050919050565b6000819050919050565b60006200024e62000248620002428462000219565b62000223565b62000219565b9050919050565b6000819050919050565b6200026a836200022d565b62000282620002798262000255565b848454620001c3565b825550505050565b600090565b620002996200028a565b620002a68184846200025f565b505050565b5b81811015620002ce57620002c26000826200028f565b600181019050620002ac565b5050565b601f8211156200031d57620002e78162000191565b620002f284620001a6565b8101602085101562000302578190505b6200031a6200031185620001a6565b830182620002ab565b50505b505050565b600082821c905092915050565b6000620003426000198460080262000322565b1980831691505092915050565b60006200035d83836200032f565b9150826002028217905092915050565b6200037882620000f3565b67ffffffffffffffff811115620003945762000393620000fe565b5b620003a082546200015c565b620003ad828285620002d2565b600060209050601f831160018114620003e55760008415620003d0578287015190505b620003dc85826200034f565b8655506200044c565b601f198416620003f58662000191565b60005b828110156200041f57848901518255600182019150602085019450602081019050620003f8565b868310156200043f57848901516200043b601f8916826200032f565b8355505b6001600288020188555050505b505050505050565b61222180620004646000396000f3fe608060405234801561001057600080fd5b50600436106101165760003560e01c806370a08231116100a2578063b88d4fde11610071578063b88d4fde146102dd578063c87b56dd146102f9578063e3d670d714610329578063e985e9c514610359578063f851a4401461038957610116565b806370a082311461025757806389afcb441461028757806395d89b41146102a3578063a22cb465146102c157610116565b806318160ddd116100e957806318160ddd146101b557806323b872dd146101d357806342842e0e146101ef5780636352211e1461020b5780636a6278421461023b57610116565b806301ffc9a71461011b57806306fdde031461014b578063081812fc14610169578063095ea7b314610199575b600080fd5b610135600480360381019061013091906118b0565b6103a7565b60405161014291906118f8565b60405180910390f35b610153610489565b60405161016091906119a3565b60405180910390f35b610183600480360381019061017e91906119fb565b61051b565b6040516101909190611a69565b60405180910390f35b6101b360048036038101906101ae9190611ab0565b610537565b005b6101bd61054d565b6040516101ca9190611aff565b60405180910390f35b6101ed60048036038101906101e89190611b1a565b610553565b005b61020960048036038101906102049190611b1a565b610655565b005b610225600480360381019061022091906119fb565b610675565b6040516102329190611a69565b60405180910390f35b61025560048036038101906102509190611b6d565b610687565b005b610271600480360381019061026c9190611b6d565b61078b565b60405161027e9190611aff565b60405180910390f35b6102a1600480360381019061029c9190611b6d565b610845565b005b6102ab6109cb565b6040516102b891906119a3565b60405180910390f35b6102db60048036038101906102d69190611bc6565b610a5d565b005b6102f760048036038101906102f29190611d3b565b610a73565b005b610313600480360381019061030e91906119fb565b610a90565b60405161032091906119a3565b60405180910390f35b610343600480360381019061033e9190611b6d565b610af9565b6040516103509190611aff565b60405180910390f35b610373600480360381019061036e9190611dbe565b610b42565b60405161038091906118f8565b60405180910390f35b610391610bd6565b60405161039e9190611a69565b60405180910390f35b60007f80ac58cd000000000000000000000000000000000000000000000000000000007bffffffffffffffffffffffffffffffffffffffffffffffffffffffff1916827bffffffffffffffffffffffffffffffffffffffffffffffffffffffff1916148061047257507f5b5e139f000000000000000000000000000000000000000000000000000000007bffffffffffffffffffffffffffffffffffffffffffffffffffffffff1916827bffffffffffffffffffffffffffffffffffffffffffffffffffffffff1916145b80610482575061048182610bfc565b5b9050919050565b60606000805461049890611e2d565b80601f01602080910402602001604051908101604052809291908181526020018280546104c490611e2d565b80156105115780601f106104e657610100808354040283529160200191610511565b820191906000526020600020905b8154815290600101906020018083116104f457829003601f168201915b5050505050905090565b600061052682610c66565b5061053082610cee565b9050919050565b6105498282610544610d2b565b610d33565b5050565b60065481565b600073ffffffffffffffffffffffffffffffffffffffff168273ffffffffffffffffffffffffffffffffffffffff16036105c55760006040517f64a0ae920000000000000000000000000000000000000000000000000000000081526004016105bc9190611a69565b60405180910390fd5b60006105d983836105d4610d2b565b610d45565b90508373ffffffffffffffffffffffffffffffffffffffff168173ffffffffffffffffffffffffffffffffffffffff161461064f578382826040517f64283d7b00000000000000000000000000000000000000000000000000000000815260040161064693929190611e5e565b60405180910390fd5b50505050565b61067083838360405180602001604052806000815250610a73565b505050565b600061068082610c66565b9050919050565b600860009054906101000a900473ffffffffffffffffffffffffffffffffffffffff1673ffffffffffffffffffffffffffffffffffffffff163373ffffffffffffffffffffffffffffffffffffffff1614610717576040517f08c379a000000000000000000000000000000000000000000000000000000000815260040161070e90611f07565b60405180910390fd5b60016006600082825461072a9190611f56565b925050819055506001600760008373ffffffffffffffffffffffffffffffffffffffff1673ffffffffffffffffffffffffffffffffffffffff16815260200190815260200160002060008282546107819190611f56565b9250508190555050565b60008073ffffffffffffffffffffffffffffffffffffffff168273ffffffffffffffffffffffffffffffffffffffff16036107fe5760006040517f89c62b640000000000000000000000000000000000000000000000000000000081526004016107f59190611a69565b60405180910390fd5b600360008373ffffffffffffffffffffffffffffffffffffffff1673ffffffffffffffffffffffffffffffffffffffff168152602001908152602001600020549050919050565b600860009054906101000a900473ffffffffffffffffffffffffffffffffffffffff1673ffffffffffffffffffffffffffffffffffffffff163373ffffffffffffffffffffffffffffffffffffffff16146108d5576040517f08c379a00000000000000000000000000000000000000000000000000000000081526004016108cc90611f07565b60405180910390fd5b6000600760008373ffffffffffffffffffffffffffffffffffffffff1673ffffffffffffffffffffffffffffffffffffffff1681526020019081526020016000205411610957576040517f08c379a000000000000000000000000000000000000000000000000000000000815260040161094e90611ffc565b60405180910390fd5b60016006600082825461096a919061201c565b925050819055506001600760008373ffffffffffffffffffffffffffffffffffffffff1673ffffffffffffffffffffffffffffffffffffffff16815260200190815260200160002060008282546109c1919061201c565b9250508190555050565b6060600180546109da90611e2d565b80601f0160208091040260200160405190810160405280929190818152602001828054610a0690611e2d565b8015610a535780601f10610a2857610100808354040283529160200191610a53565b820191906000526020600020905b815481529060010190602001808311610a3657829003601f168201915b5050505050905090565b610a6f610a68610d2b565b8383610f5f565b5050565b610a7e848484610553565b610a8a848484846110ce565b50505050565b6060610a9b82610c66565b506000610aa6611285565b90506000815111610ac65760405180602001604052806000815250610af1565b80610ad08461129c565b604051602001610ae192919061208c565b6040516020818303038152906040525b915050919050565b6000600760008373ffffffffffffffffffffffffffffffffffffffff1673ffffffffffffffffffffffffffffffffffffffff168152602001908152602001600020549050919050565b6000600560008473ffffffffffffffffffffffffffffffffffffffff1673ffffffffffffffffffffffffffffffffffffffff16815260200190815260200160002060008373ffffffffffffffffffffffffffffffffffffffff1673ffffffffffffffffffffffffffffffffffffffff16815260200190815260200160002060009054906101000a900460ff16905092915050565b600860009054906101000a900473ffffffffffffffffffffffffffffffffffffffff1681565b60007f01ffc9a7000000000000000000000000000000000000000000000000000000007bffffffffffffffffffffffffffffffffffffffffffffffffffffffff1916827bffffffffffffffffffffffffffffffffffffffffffffffffffffffff1916149050919050565b600080610c728361136a565b9050600073ffffffffffffffffffffffffffffffffffffffff168173ffffffffffffffffffffffffffffffffffffffff1603610ce557826040517f7e273289000000000000000000000000000000000000000000000000000000008152600401610cdc9190611aff565b60405180910390fd5b80915050919050565b60006004600083815260200190815260200160002060009054906101000a900473ffffffffffffffffffffffffffffffffffffffff169050919050565b600033905090565b610d4083838360016113a7565b505050565b600080610d518461136a565b9050600073ffffffffffffffffffffffffffffffffffffffff168373ffffffffffffffffffffffffffffffffffffffff1614610d9357610d9281848661156c565b5b600073ffffffffffffffffffffffffffffffffffffffff168173ffffffffffffffffffffffffffffffffffffffff1614610e2457610dd56000856000806113a7565b6001600360008373ffffffffffffffffffffffffffffffffffffffff1673ffffffffffffffffffffffffffffffffffffffff168152602001908152602001600020600082825403925050819055505b600073ffffffffffffffffffffffffffffffffffffffff168573ffffffffffffffffffffffffffffffffffffffff1614610ea7576001600360008773ffffffffffffffffffffffffffffffffffffffff1673ffffffffffffffffffffffffffffffffffffffff168152602001908152602001600020600082825401925050819055505b846002600086815260200190815260200160002060006101000a81548173ffffffffffffffffffffffffffffffffffffffff021916908373ffffffffffffffffffffffffffffffffffffffff160217905550838573ffffffffffffffffffffffffffffffffffffffff168273ffffffffffffffffffffffffffffffffffffffff167fddf252ad1be2c89b69c2b068fc378daa952ba7f163c4a11628f55a4df523b3ef60405160405180910390a4809150509392505050565b600073ffffffffffffffffffffffffffffffffffffffff168273ffffffffffffffffffffffffffffffffffffffff1603610fd057816040517f5b08ba18000000000000000000000000000000000000000000000000000000008152600401610fc79190611a69565b60405180910390fd5b80600560008573ffffffffffffffffffffffffffffffffffffffff1673ffffffffffffffffffffffffffffffffffffffff16815260200190815260200160002060008473ffffffffffffffffffffffffffffffffffffffff1673ffffffffffffffffffffffffffffffffffffffff16815260200190815260200160002060006101000a81548160ff0219169083151502179055508173ffffffffffffffffffffffffffffffffffffffff168373ffffffffffffffffffffffffffffffffffffffff167f17307eab39ab6107e8899845ad3d59bd9653f200f220920489ca2b5937696c31836040516110c191906118f8565b60405180910390a3505050565b60008373ffffffffffffffffffffffffffffffffffffffff163b111561127f578273ffffffffffffffffffffffffffffffffffffffff1663150b7a02611112610d2b565b8685856040518563ffffffff1660e01b81526004016111349493929190612105565b6020604051808303816000875af192505050801561117057506040513d601f19601f8201168201806040525081019061116d9190612166565b60015b6111f4573d80600081146111a0576040519150601f19603f3d011682016040523d82523d6000602084013e6111a5565b606091505b5060008151036111ec57836040517f64a0ae920000000000000000000000000000000000000000000000000000000081526004016111e39190611a69565b60405180910390fd5b805181602001fd5b63150b7a0260e01b7bffffffffffffffffffffffffffffffffffffffffffffffffffffffff1916817bffffffffffffffffffffffffffffffffffffffffffffffffffffffff19161461127d57836040517f64a0ae920000000000000000000000000000000000000000000000000000000081526004016112749190611a69565b60405180910390fd5b505b50505050565b606060405180602001604052806000815250905090565b6060600060016112ab84611630565b01905060008167ffffffffffffffff8111156112ca576112c9611c10565b5b6040519080825280601f01601f1916602001820160405280156112fc5781602001600182028036833780820191505090505b509050600082602001820190505b60011561135f578080600190039150507f3031323334353637383961626364656600000000000000000000000000000000600a86061a8153600a858161135357611352612193565b5b0494506000850361130a575b819350505050919050565b60006002600083815260200190815260200160002060009054906101000a900473ffffffffffffffffffffffffffffffffffffffff169050919050565b80806113e05750600073ffffffffffffffffffffffffffffffffffffffff168273ffffffffffffffffffffffffffffffffffffffff1614155b156115145760006113f084610c66565b9050600073ffffffffffffffffffffffffffffffffffffffff168373ffffffffffffffffffffffffffffffffffffffff161415801561145b57508273ffffffffffffffffffffffffffffffffffffffff168173ffffffffffffffffffffffffffffffffffffffff1614155b801561146e575061146c8184610b42565b155b156114b057826040517fa9fbf51f0000000000000000000000000000000000000000000000000000000081526004016114a79190611a69565b60405180910390fd5b811561151257838573ffffffffffffffffffffffffffffffffffffffff168273ffffffffffffffffffffffffffffffffffffffff167f8c5be1e5ebec7d5bd14f71427d1e84f3dd0314c0f7b2291e5b200ac8c7c3b92560405160405180910390a45b505b836004600085815260200190815260200160002060006101000a81548173ffffffffffffffffffffffffffffffffffffffff021916908373ffffffffffffffffffffffffffffffffffffffff16021790555050505050565b611577838383611783565b61162b57600073ffffffffffffffffffffffffffffffffffffffff168373ffffffffffffffffffffffffffffffffffffffff16036115ec57806040517f7e2732890000000000000000000000000000000000000000000000000000000081526004016115e39190611aff565b60405180910390fd5b81816040517f177e802f0000000000000000000000000000000000000000000000000000000081526004016116229291906121c2565b60405180910390fd5b505050565b600080600090507a184f03e93ff9f4daa797ed6e38ed64bf6a1f010000000000000000831061168e577a184f03e93ff9f4daa797ed6e38ed64bf6a1f010000000000000000838161168457611683612193565b5b0492506040810190505b6d04ee2d6d415b85acef810000000083106116cb576d04ee2d6d415b85acef810000000083816116c1576116c0612193565b5b0492506020810190505b662386f26fc1000083106116fa57662386f26fc1000083816116f0576116ef612193565b5b0492506010810190505b6305f5e1008310611723576305f5e100838161171957611718612193565b5b0492506008810190505b612710831061174857612710838161173e5761173d612193565b5b0492506004810190505b6064831061176b576064838161176157611760612193565b5b0492506002810190505b600a831061177a576001810190505b80915050919050565b60008073ffffffffffffffffffffffffffffffffffffffff168373ffffffffffffffffffffffffffffffffffffffff161415801561183b57508273ffffffffffffffffffffffffffffffffffffffff168473ffffffffffffffffffffffffffffffffffffffff1614806117fc57506117fb8484610b42565b5b8061183a57508273ffffffffffffffffffffffffffffffffffffffff1661182283610cee565b73ffffffffffffffffffffffffffffffffffffffff16145b5b90509392505050565b6000604051905090565b600080fd5b600080fd5b60007fffffffff0000000000000000000000000000000000000000000000000000000082169050919050565b61188d81611858565b811461189857600080fd5b50565b6000813590506118aa81611884565b92915050565b6000602082840312156118c6576118c561184e565b5b60006118d48482850161189b565b91505092915050565b60008115159050919050565b6118f2816118dd565b82525050565b600060208201905061190d60008301846118e9565b92915050565b600081519050919050565b600082825260208201905092915050565b60005b8381101561194d578082015181840152602081019050611932565b60008484015250505050565b6000601f19601f8301169050919050565b600061197582611913565b61197f818561191e565b935061198f81856020860161192f565b61199881611959565b840191505092915050565b600060208201905081810360008301526119bd818461196a565b905092915050565b6000819050919050565b6119d8816119c5565b81146119e357600080fd5b50565b6000813590506119f5816119cf565b92915050565b600060208284031215611a1157611a1061184e565b5b6000611a1f848285016119e6565b91505092915050565b600073ffffffffffffffffffffffffffffffffffffffff82169050919050565b6000611a5382611a28565b9050919050565b611a6381611a48565b82525050565b6000602082019050611a7e6000830184611a5a565b92915050565b611a8d81611a48565b8114611a9857600080fd5b50565b600081359050611aaa81611a84565b92915050565b60008060408385031215611ac757611ac661184e565b5b6000611ad585828601611a9b565b9250506020611ae6858286016119e6565b9150509250929050565b611af9816119c5565b82525050565b6000602082019050611b146000830184611af0565b92915050565b600080600060608486031215611b3357611b3261184e565b5b6000611b4186828701611a9b565b9350506020611b5286828701611a9b565b9250506040611b63868287016119e6565b9150509250925092565b600060208284031215611b8357611b8261184e565b5b6000611b9184828501611a9b565b91505092915050565b611ba3816118dd565b8114611bae57600080fd5b50565b600081359050611bc081611b9a565b92915050565b60008060408385031215611bdd57611bdc61184e565b5b6000611beb85828601611a9b565b9250506020611bfc85828601611bb1565b9150509250929050565b600080fd5b600080fd5b7f4e487b7100000000000000000000000000000000000000000000000000000000600052604160045260246000fd5b611c4882611959565b810181811067ffffffffffffffff82111715611c6757611c66611c10565b5b80604052505050565b6000611c7a611844565b9050611c868282611c3f565b919050565b600067ffffffffffffffff821115611ca657611ca5611c10565b5b611caf82611959565b9050602081019050919050565b82818337600083830152505050565b6000611cde611cd984611c8b565b611c70565b905082815260208101848484011115611cfa57611cf9611c0b565b5b611d05848285611cbc565b509392505050565b600082601f830112611d2257611d21611c06565b5b8135611d32848260208601611ccb565b91505092915050565b60008060008060808587031215611d5557611d5461184e565b5b6000611d6387828801611a9b565b9450506020611d7487828801611a9b565b9350506040611d85878288016119e6565b925050606085013567ffffffffffffffff811115611da657611da5611853565b5b611db287828801611d0d565b91505092959194509250565b60008060408385031215611dd557611dd461184e565b5b6000611de385828601611a9b565b9250506020611df485828601611a9b565b9150509250929050565b7f4e487b7100000000000000000000000000000000000000000000000000000000600052602260045260246000fd5b60006002820490506001821680611e4557607f821691505b602082108103611e5857611e57611dfe565b5b50919050565b6000606082019050611e736000830186611a5a565b611e806020830185611af0565b611e8d6040830184611a5a565b949350505050565b7f486f73706974616c546f6b656e3a2043616c6c6572206973206e6f742074686560008201527f2061646d696e0000000000000000000000000000000000000000000000000000602082015250565b6000611ef160268361191e565b9150611efc82611e95565b604082019050919050565b60006020820190508181036000830152611f2081611ee4565b9050919050565b7f4e487b7100000000000000000000000000000000000000000000000000000000600052601160045260246000fd5b6000611f61826119c5565b9150611f6c836119c5565b9250828201905080821115611f8457611f83611f27565b5b92915050565b7f486f73706974616c546f6b656e3a20496e73756666696369656e742062616c6160008201527f6e63650000000000000000000000000000000000000000000000000000000000602082015250565b6000611fe660238361191e565b9150611ff182611f8a565b604082019050919050565b6000602082019050818103600083015261201581611fd9565b9050919050565b6000612027826119c5565b9150612032836119c5565b925082820390508181111561204a57612049611f27565b5b92915050565b600081905092915050565b600061206682611913565b6120708185612050565b935061208081856020860161192f565b80840191505092915050565b6000612098828561205b565b91506120a4828461205b565b91508190509392505050565b600081519050919050565b600082825260208201905092915050565b60006120d7826120b0565b6120e181856120bb565b93506120f181856020860161192f565b6120fa81611959565b840191505092915050565b600060808201905061211a6000830187611a5a565b6121276020830186611a5a565b6121346040830185611af0565b818103606083015261214681846120cc565b905095945050505050565b60008151905061216081611884565b92915050565b60006020828403121561217c5761217b61184e565b5b600061218a84828501612151565b91505092915050565b7f4e487b7100000000000000000000000000000000000000000000000000000000600052601260045260246000fd5b60006040820190506121d76000830185611a5a565b6121e46020830184611af0565b939250505056fea26469706673582212204caf0c33e3efc672b0b48acb9651201156f5f3f7f1e3522ebd745fce9933778764736f6c63430008140033",
  "linkReferences": {},
  "deployedLinkReferences": {}
}