{
  "_format": "hh-sol-artifact-1",
  "contractName": "HospitalToken",
  "sourceName": "contracts/MyNFT.sol",
  "abi": [
    {
      "inputs": [
        {
          "internalType": "string",
          "name": "name",
          "type": "string"
        },
        {
          "internalType": "string",
          "name": "symbol",
          "type": "string"
        }
      ],
      "stateMutability": "nonpayable",
      "type": "constructor"
    },
    {
      "inputs": [
        {
          "internalType": "address",
          "name": "sender",
          "type": "address"
        },
        {
          "internalType": "uint256",
          "name": "tokenId",
          "type": "uint256"
        },
        {
          "internalType": "address",
          "name": "owner",
          "type": "address"
        }
      ],
      "name": "ERC721IncorrectOwner",
      "type": "error"
    },
    {
      "inputs": [
        {
          "internalType": "address",
          "name": "operator",
          "type": "address"
        },
        {
          "internalType": "uint256",
          "name": "tokenId",
          "type": "uint256"
        }
      ],
      "name": "ERC721InsufficientApproval",
      "type": "error"
    },
    {
      "inputs": [
        {
          "internalType": "address",
          "name": "approver",
          "type": "address"
        }
      ],
      "name": "ERC721InvalidApprover",
      "type": "error"
    },
    {
      "inputs": [
        {
          "internalType": "address",
          "name": "operator",
          "type": "address"
        }
      ],
      "name": "ERC721InvalidOperator",
      "type": "error"
    },
    {
      "inputs": [
        {
          "internalType": "address",
          "name": "owner",
          "type": "address"
        }
      ],
      "name": "ERC721InvalidOwner",
      "type": "error"
    },
    {
      "inputs": [
        {
          "internalType": "address",
          "name": "receiver",
          "type": "address"
        }
      ],
      "name": "ERC721InvalidReceiver",
      "type": "error"
    },
    {
      "inputs": [
        {
          "internalType": "address",
          "name": "sender",
          "type": "address"
        }
      ],
      "name": "ERC721InvalidSender",
      "type": "error"
    },
    {
      "inputs": [
        {
          "internalType": "uint256",
          "name": "tokenId",
          "type": "uint256"
        }
      ],
      "name": "ERC721NonexistentToken",
      "type": "error"
    },
    {
      "anonymous": false,
      "inputs": [
        {
          "indexed": true,
          "internalType": "address",
          "name": "owner",
          "type": "address"
        },
        {
          "indexed": true,
          "internalType": "address",
          "name": "approved",
          "type": "address"
        },
        {
          "indexed": true,
          "internalType": "uint256",
          "name": "tokenId",
          "type": "uint256"
        }
      ],
      "name": "Approval",
      "type": "event"
    },
    {
      "anonymous": false,
      "inputs": [
        {
          "indexed": true,
          "internalType": "address",
          "name": "owner",
          "type": "address"
        },
        {
          "indexed": true,
          "internalType": "address",
          "name": "operator",
          "type": "address"
        },
        {
          "indexed": false,
          "internalType": "bool",
          "name": "approved",
          "type": "bool"
        }
      ],
      "name": "ApprovalForAll",
      "type": "event"
    },
    {
      "anonymous": false,
      "inputs": [
        {
          "indexed": true,
          "internalType": "address",
          "name": "from",
          "type": "address"
        },
        {
          "indexed": true,
          "internalType": "address",
          "name": "to",
          "type": "address"
        },
        {
          "indexed": true,
          "internalType": "uint256",
          "name": "tokenId",
          "type": "uint256"
        }
      ],
      "name": "Transfer",
      "type": "event"
    },
    {
      "inputs": [],
      "name": "admin",
      "outputs": [
        {
          "internalType": "address",
          "name": "",
          "type": "address"
        }
      ],
      "stateMutability": "view",
      "type": "function"
    },
    {
      "inputs": [
        {
          "internalType": "address",
          "name": "to",
          "type": "address"
        },
        {
          "internalType": "uint256",
          "name": "tokenId",
          "type": "uint256"
        }
      ],
      "name": "approve",
      "outputs": [],
      "stateMutability": "nonpayable",
      "type": "function"
    },
    {
      "inputs": [
        {
          "internalType": "address",
          "name": "owner",
          "type": "address"
        }
      ],
      "name": "balanceOf",
      "outputs": [
        {
          "internalType": "uint256",
          "name": "",
          "type": "uint256"
        }
      ],
      "stateMutability": "view",
      "type": "function"
    },
    {
      "inputs": [
        {
          "internalType": "address",
          "name": "from",
          "type": "address"
        }
      ],
      "name": "burn",
      "outputs": [],
      "stateMutability": "nonpayable",
      "type": "function"
    },
    {
      "inputs": [
        {
          "internalType": "uint256",
          "name": "tokenId",
          "type": "uint256"
        }
      ],
      "name": "getApproved",
      "outputs": [
        {
          "internalType": "address",
          "name": "",
          "type": "address"
        }
      ],
      "stateMutability": "view",
      "type": "function"
    },
    {
      "inputs": [
        {
          "internalType": "address",
          "name": "owner",
          "type": "address"
        },
        {
          "internalType": "address",
          "name": "operator",
          "type": "address"
        }
      ],
      "name": "isApprovedForAll",
      "outputs": [
        {
          "internalType": "bool",
          "name": "",
          "type": "bool"
        }
      ],
      "stateMutability": "view",
      "type": "function"
    },
    {
      "inputs": [
        {
          "internalType": "address",
          "name": "to",
          "type": "address"
        }
      ],
      "name": "mint",
      "outputs": [],
      "stateMutability": "nonpayable",
      "type": "function"
    },
    {
      "inputs": [],
      "name": "name",
      "outputs": [
        {
          "internalType": "string",
          "name": "",
          "type": "string"
        }
      ],
      "stateMutability": "view",
      "type": "function"
    },
    {
      "inputs": [
        {
          "internalType": "uint256",
          "name": "tokenId",
          "type": "uint256"
        }
      ],
      "name": "ownerOf",
      "outputs": [
        {
          "internalType": "address",
          "name": "",
          "type": "address"
        }
      ],
      "stateMutability": "view",
      "type": "function"
    },
    {
      "inputs": [
        {
          "internalType": "address",
          "name": "from",
          "type": "address"
        },
        {
          "internalType": "address",
          "name": "to",
          "type": "address"
        },
        {
          "internalType": "uint256",
          "name": "tokenId",
          "type": "uint256"
        }
      ],
      "name": "safeTransferFrom",
      "outputs": [],
      "stateMutability": "nonpayable",
      "type": "function"
    },
    {
      "inputs": [
        {
          "internalType": "address",
          "name": "from",
          "type": "address"
        },
        {
          "internalType": "address",
          "name": "to",
          "type": "address"
        },
        {
          "internalType": "uint256",
          "name": "tokenId",
          "type": "uint256"
        },
        {
          "internalType": "bytes",
          "name": "data",
          "type": "bytes"
        }
      ],
      "name": "safeTransferFrom",
      "outputs": [],
      "stateMutability": "nonpayable",
      "type": "function"
    },
    {
      "inputs": [
        {
          "internalType": "address",
          "name": "operator",
          "type": "address"
        },
        {
          "internalType": "bool",
          "name": "approved",
          "type": "bool"
        }
      ],
      "name": "setApprovalForAll",
      "outputs": [],
      "stateMutability": "nonpayable",
      "type": "function"
    },
    {
      "inputs": [
        {
          "internalType": "bytes4",
          "name": "interfaceId",
          "type": "bytes4"
        }
      ],
      "name": "supportsInterface",
      "outputs": [
        {
          "internalType": "bool",
          "name": "",
          "type": "bool"
        }
      ],
      "stateMutability": "view",
      "type": "function"
    },
    {
      "inputs": [],
      "name": "symbol",
      "outputs": [
        {
          "internalType": "string",
          "name": "",
          "type": "string"
        }
      ],
      "stateMutability": "view",
      "type": "function"
    },
    {
      "inputs": [
        {
          "internalType": "uint256",
          "name": "tokenId",
          "type": "uint256"
        }
      ],
      "name": "tokenURI",
      "outputs": [
        {
          "internalType": "string",
          "name": "",
          "type": "string"
        }
      ],
      "stateMutability": "view",
      "type": "function"
    },
    {
      "inputs": [],
      "name": "totalSupply",
      "outputs": [
        {
          "internalType": "uint256",
          "name": "",
          "type": "uint256"
        }
      ],
      "stateMutability": "view",
      "type": "function"
    },
    {
      "inputs": [
        {
          "internalType": "address",
          "name": "from",
          "type": "address"
        },
        {
          "internalType": "address",
          "name": "to",
          "type": "address"
        },
        {
          "internalType": "uint256",
          "name": "tokenId",
          "type": "uint256"
        }
      ],
      "name": "transferFrom",
      "outputs": [],
      "stateMutability": "nonpayable",
      "type": "function"
    }
  ],
  "bytecode": "0x60806040523480156200001157600080fd5b50604051620027eb380380620027eb8339818101604052810190620000379190620002ad565b6040518060400160405280600481526020017f6e616d65000000000000000000000000000000000000000000000000000000008152506040518060400160405280600681526020017f73796d626f6c00000000000000000000000000000000000000000000000000008152508160009081620000b491906200057d565b508060019081620000c691906200057d565b505050600060068190555033600860006101000a81548173ffffffffffffffffffffffffffffffffffffffff021916908373ffffffffffffffffffffffffffffffffffffffff160217905550505062000664565b6000604051905090565b600080fd5b600080fd5b600080fd5b600080fd5b6000601f19601f8301169050919050565b7f4e487b7100000000000000000000000000000000000000000000000000000000600052604160045260246000fd5b620001838262000138565b810181811067ffffffffffffffff82111715620001a557620001a462000149565b5b80604052505050565b6000620001ba6200011a565b9050620001c8828262000178565b919050565b600067ffffffffffffffff821115620001eb57620001ea62000149565b5b620001f68262000138565b9050602081019050919050565b60005b838110156200022357808201518184015260208101905062000206565b60008484015250505050565b6000620002466200024084620001cd565b620001ae565b90508281526020810184848401111562000265576200026462000133565b5b6200027284828562000203565b509392505050565b600082601f8301126200029257620002916200012e565b5b8151620002a48482602086016200022f565b91505092915050565b60008060408385031215620002c757620002c662000124565b5b600083015167ffffffffffffffff811115620002e857620002e762000129565b5b620002f6858286016200027a565b925050602083015167ffffffffffffffff8111156200031a576200031962000129565b5b62000328858286016200027a565b9150509250929050565b600081519050919050565b7f4e487b7100000000000000000000000000000000000000000000000000000000600052602260045260246000fd5b600060028204905060018216806200038557607f821691505b6020821081036200039b576200039a6200033d565b5b50919050565b60008190508160005260206000209050919050565b60006020601f8301049050919050565b600082821b905092915050565b600060088302620004057fffffffffffffffffffffffffffffffffffffffffffffffffffffffffffffffff82620003c6565b620004118683620003c6565b95508019841693508086168417925050509392505050565b6000819050919050565b6000819050919050565b60006200045e62000458620004528462000429565b62000433565b62000429565b9050919050565b6000819050919050565b6200047a836200043d565b62000492620004898262000465565b848454620003d3565b825550505050565b600090565b620004a96200049a565b620004b68184846200046f565b505050565b5b81811015620004de57620004d26000826200049f565b600181019050620004bc565b5050565b601f8211156200052d57620004f781620003a1565b6200050284620003b6565b8101602085101562000512578190505b6200052a6200052185620003b6565b830182620004bb565b50505b505050565b600082821c905092915050565b6000620005526000198460080262000532565b1980831691505092915050565b60006200056d83836200053f565b9150826002028217905092915050565b620005888262000332565b67ffffffffffffffff811115620005a457620005a362000149565b5b620005b082546200036c565b620005bd828285620004e2565b600060209050601f831160018114620005f55760008415620005e0578287015190505b620005ec85826200055f565b8655506200065c565b601f1984166200060586620003a1565b60005b828110156200062f5784890151825560018201915060208501945060208101905062000608565b868310156200064f57848901516200064b601f8916826200053f565b8355505b6001600288020188555050505b505050505050565b61217780620006746000396000f3fe608060405234801561001057600080fd5b506004361061010b5760003560e01c80636a627842116100a2578063a22cb46511610071578063a22cb465146102b6578063b88d4fde146102d2578063c87b56dd146102ee578063e985e9c51461031e578063f851a4401461034e5761010b565b80636a6278421461023057806370a082311461024c57806389afcb441461027c57806395d89b41146102985761010b565b806318160ddd116100de57806318160ddd146101aa57806323b872dd146101c857806342842e0e146101e45780636352211e146102005761010b565b806301ffc9a71461011057806306fdde0314610140578063081812fc1461015e578063095ea7b31461018e575b600080fd5b61012a6004803603810190610125919061182c565b61036c565b6040516101379190611874565b60405180910390f35b61014861044e565b604051610155919061191f565b60405180910390f35b61017860048036038101906101739190611977565b6104e0565b60405161018591906119e5565b60405180910390f35b6101a860048036038101906101a39190611a2c565b6104fc565b005b6101b2610512565b6040516101bf9190611a7b565b60405180910390f35b6101e260048036038101906101dd9190611a96565b610518565b005b6101fe60048036038101906101f99190611a96565b61061a565b005b61021a60048036038101906102159190611977565b61063a565b60405161022791906119e5565b60405180910390f35b61024a60048036038101906102459190611ae9565b61064c565b005b61026660048036038101906102619190611ae9565b610750565b6040516102739190611a7b565b60405180910390f35b61029660048036038101906102919190611ae9565b61080a565b005b6102a0610990565b6040516102ad919061191f565b60405180910390f35b6102d060048036038101906102cb9190611b42565b610a22565b005b6102ec60048036038101906102e79190611cb7565b610a38565b005b61030860048036038101906103039190611977565b610a55565b604051610315919061191f565b60405180910390f35b61033860048036038101906103339190611d3a565b610abe565b6040516103459190611874565b60405180910390f35b610356610b52565b60405161036391906119e5565b60405180910390f35b60007f80ac58cd000000000000000000000000000000000000000000000000000000007bffffffffffffffffffffffffffffffffffffffffffffffffffffffff1916827bffffffffffffffffffffffffffffffffffffffffffffffffffffffff1916148061043757507f5b5e139f000000000000000000000000000000000000000000000000000000007bffffffffffffffffffffffffffffffffffffffffffffffffffffffff1916827bffffffffffffffffffffffffffffffffffffffffffffffffffffffff1916145b80610447575061044682610b78565b5b9050919050565b60606000805461045d90611da9565b80601f016020809104026020016040519081016040528092919081815260200182805461048990611da9565b80156104d65780601f106104ab576101008083540402835291602001916104d6565b820191906000526020600020905b8154815290600101906020018083116104b957829003601f168201915b5050505050905090565b60006104eb82610be2565b506104f582610c6a565b9050919050565b61050e8282610509610ca7565b610caf565b5050565b60065481565b600073ffffffffffffffffffffffffffffffffffffffff168273ffffffffffffffffffffffffffffffffffffffff160361058a5760006040517f64a0ae9200000000000000000000000000000000000000000000000000000000815260040161058191906119e5565b60405180910390fd5b600061059e8383610599610ca7565b610cc1565b90508373ffffffffffffffffffffffffffffffffffffffff168173ffffffffffffffffffffffffffffffffffffffff1614610614578382826040517f64283d7b00000000000000000000000000000000000000000000000000000000815260040161060b93929190611dda565b60405180910390fd5b50505050565b61063583838360405180602001604052806000815250610a38565b505050565b600061064582610be2565b9050919050565b600860009054906101000a900473ffffffffffffffffffffffffffffffffffffffff1673ffffffffffffffffffffffffffffffffffffffff163373ffffffffffffffffffffffffffffffffffffffff16146106dc576040517f08c379a00000000000000000000000000000000000000000000000000000000081526004016106d390611e83565b60405180910390fd5b6001600660008282546106ef9190611ed2565b925050819055506001600760008373ffffffffffffffffffffffffffffffffffffffff1673ffffffffffffffffffffffffffffffffffffffff16815260200190815260200160002060008282546107469190611ed2565b9250508190555050565b60008073ffffffffffffffffffffffffffffffffffffffff168273ffffffffffffffffffffffffffffffffffffffff16036107c35760006040517f89c62b640000000000000000000000000000000000000000000000000000000081526004016107ba91906119e5565b60405180910390fd5b600360008373ffffffffffffffffffffffffffffffffffffffff1673ffffffffffffffffffffffffffffffffffffffff168152602001908152602001600020549050919050565b600860009054906101000a900473ffffffffffffffffffffffffffffffffffffffff1673ffffffffffffffffffffffffffffffffffffffff163373ffffffffffffffffffffffffffffffffffffffff161461089a576040517f08c379a000000000000000000000000000000000000000000000000000000000815260040161089190611e83565b60405180910390fd5b6000600760008373ffffffffffffffffffffffffffffffffffffffff1673ffffffffffffffffffffffffffffffffffffffff168152602001908152602001600020541161091c576040517f08c379a000000000000000000000000000000000000000000000000000000000815260040161091390611f52565b60405180910390fd5b60016006600082825461092f9190611f72565b925050819055506001600760008373ffffffffffffffffffffffffffffffffffffffff1673ffffffffffffffffffffffffffffffffffffffff16815260200190815260200160002060008282546109869190611f72565b9250508190555050565b60606001805461099f90611da9565b80601f01602080910402602001604051908101604052809291908181526020018280546109cb90611da9565b8015610a185780601f106109ed57610100808354040283529160200191610a18565b820191906000526020600020905b8154815290600101906020018083116109fb57829003601f168201915b5050505050905090565b610a34610a2d610ca7565b8383610edb565b5050565b610a43848484610518565b610a4f8484848461104a565b50505050565b6060610a6082610be2565b506000610a6b611201565b90506000815111610a8b5760405180602001604052806000815250610ab6565b80610a9584611218565b604051602001610aa6929190611fe2565b6040516020818303038152906040525b915050919050565b6000600560008473ffffffffffffffffffffffffffffffffffffffff1673ffffffffffffffffffffffffffffffffffffffff16815260200190815260200160002060008373ffffffffffffffffffffffffffffffffffffffff1673ffffffffffffffffffffffffffffffffffffffff16815260200190815260200160002060009054906101000a900460ff16905092915050565b600860009054906101000a900473ffffffffffffffffffffffffffffffffffffffff1681565b60007f01ffc9a7000000000000000000000000000000000000000000000000000000007bffffffffffffffffffffffffffffffffffffffffffffffffffffffff1916827bffffffffffffffffffffffffffffffffffffffffffffffffffffffff1916149050919050565b600080610bee836112e6565b9050600073ffffffffffffffffffffffffffffffffffffffff168173ffffffffffffffffffffffffffffffffffffffff1603610c6157826040517f7e273289000000000000000000000000000000000000000000000000000000008152600401610c589190611a7b565b60405180910390fd5b80915050919050565b60006004600083815260200190815260200160002060009054906101000a900473ffffffffffffffffffffffffffffffffffffffff169050919050565b600033905090565b610cbc8383836001611323565b505050565b600080610ccd846112e6565b9050600073ffffffffffffffffffffffffffffffffffffffff168373ffffffffffffffffffffffffffffffffffffffff1614610d0f57610d0e8184866114e8565b5b600073ffffffffffffffffffffffffffffffffffffffff168173ffffffffffffffffffffffffffffffffffffffff1614610da057610d51600085600080611323565b6001600360008373ffffffffffffffffffffffffffffffffffffffff1673ffffffffffffffffffffffffffffffffffffffff168152602001908152602001600020600082825403925050819055505b600073ffffffffffffffffffffffffffffffffffffffff168573ffffffffffffffffffffffffffffffffffffffff1614610e23576001600360008773ffffffffffffffffffffffffffffffffffffffff1673ffffffffffffffffffffffffffffffffffffffff168152602001908152602001600020600082825401925050819055505b846002600086815260200190815260200160002060006101000a81548173ffffffffffffffffffffffffffffffffffffffff021916908373ffffffffffffffffffffffffffffffffffffffff160217905550838573ffffffffffffffffffffffffffffffffffffffff168273ffffffffffffffffffffffffffffffffffffffff167fddf252ad1be2c89b69c2b068fc378daa952ba7f163c4a11628f55a4df523b3ef60405160405180910390a4809150509392505050565b600073ffffffffffffffffffffffffffffffffffffffff168273ffffffffffffffffffffffffffffffffffffffff1603610f4c57816040517f5b08ba18000000000000000000000000000000000000000000000000000000008152600401610f4391906119e5565b60405180910390fd5b80600560008573ffffffffffffffffffffffffffffffffffffffff1673ffffffffffffffffffffffffffffffffffffffff16815260200190815260200160002060008473ffffffffffffffffffffffffffffffffffffffff1673ffffffffffffffffffffffffffffffffffffffff16815260200190815260200160002060006101000a81548160ff0219169083151502179055508173ffffffffffffffffffffffffffffffffffffffff168373ffffffffffffffffffffffffffffffffffffffff167f17307eab39ab6107e8899845ad3d59bd9653f200f220920489ca2b5937696c318360405161103d9190611874565b60405180910390a3505050565b60008373ffffffffffffffffffffffffffffffffffffffff163b11156111fb578273ffffffffffffffffffffffffffffffffffffffff1663150b7a0261108e610ca7565b8685856040518563ffffffff1660e01b81526004016110b0949392919061205b565b6020604051808303816000875af19250505080156110ec57506040513d601f19601f820116820180604052508101906110e991906120bc565b60015b611170573d806000811461111c576040519150601f19603f3d011682016040523d82523d6000602084013e611121565b606091505b50600081510361116857836040517f64a0ae9200000000000000000000000000000000000000000000000000000000815260040161115f91906119e5565b60405180910390fd5b805181602001fd5b63150b7a0260e01b7bffffffffffffffffffffffffffffffffffffffffffffffffffffffff1916817bffffffffffffffffffffffffffffffffffffffffffffffffffffffff1916146111f957836040517f64a0ae920000000000000000000000000000000000000000000000000000000081526004016111f091906119e5565b60405180910390fd5b505b50505050565b606060405180602001604052806000815250905090565b606060006001611227846115ac565b01905060008167ffffffffffffffff81111561124657611245611b8c565b5b6040519080825280601f01601f1916602001820160405280156112785781602001600182028036833780820191505090505b509050600082602001820190505b6001156112db578080600190039150507f3031323334353637383961626364656600000000000000000000000000000000600a86061a8153600a85816112cf576112ce6120e9565b5b04945060008503611286575b819350505050919050565b60006002600083815260200190815260200160002060009054906101000a900473ffffffffffffffffffffffffffffffffffffffff169050919050565b808061135c5750600073ffffffffffffffffffffffffffffffffffffffff168273ffffffffffffffffffffffffffffffffffffffff1614155b1561149057600061136c84610be2565b9050600073ffffffffffffffffffffffffffffffffffffffff168373ffffffffffffffffffffffffffffffffffffffff16141580156113d757508273ffffffffffffffffffffffffffffffffffffffff168173ffffffffffffffffffffffffffffffffffffffff1614155b80156113ea57506113e88184610abe565b155b1561142c57826040517fa9fbf51f00000000000000000000000000000000000000000000000000000000815260040161142391906119e5565b60405180910390fd5b811561148e57838573ffffffffffffffffffffffffffffffffffffffff168273ffffffffffffffffffffffffffffffffffffffff167f8c5be1e5ebec7d5bd14f71427d1e84f3dd0314c0f7b2291e5b200ac8c7c3b92560405160405180910390a45b505b836004600085815260200190815260200160002060006101000a81548173ffffffffffffffffffffffffffffffffffffffff021916908373ffffffffffffffffffffffffffffffffffffffff16021790555050505050565b6114f38383836116ff565b6115a757600073ffffffffffffffffffffffffffffffffffffffff168373ffffffffffffffffffffffffffffffffffffffff160361156857806040517f7e27328900000000000000000000000000000000000000000000000000000000815260040161155f9190611a7b565b60405180910390fd5b81816040517f177e802f00000000000000000000000000000000000000000000000000000000815260040161159e929190612118565b60405180910390fd5b505050565b600080600090507a184f03e93ff9f4daa797ed6e38ed64bf6a1f010000000000000000831061160a577a184f03e93ff9f4daa797ed6e38ed64bf6a1f0100000000000000008381611600576115ff6120e9565b5b0492506040810190505b6d04ee2d6d415b85acef81000000008310611647576d04ee2d6d415b85acef8100000000838161163d5761163c6120e9565b5b0492506020810190505b662386f26fc10000831061167657662386f26fc10000838161166c5761166b6120e9565b5b0492506010810190505b6305f5e100831061169f576305f5e1008381611695576116946120e9565b5b0492506008810190505b61271083106116c45761271083816116ba576116b96120e9565b5b0492506004810190505b606483106116e757606483816116dd576116dc6120e9565b5b0492506002810190505b600a83106116f6576001810190505b80915050919050565b60008073ffffffffffffffffffffffffffffffffffffffff168373ffffffffffffffffffffffffffffffffffffffff16141580156117b757508273ffffffffffffffffffffffffffffffffffffffff168473ffffffffffffffffffffffffffffffffffffffff16148061177857506117778484610abe565b5b806117b657508273ffffffffffffffffffffffffffffffffffffffff1661179e83610c6a565b73ffffffffffffffffffffffffffffffffffffffff16145b5b90509392505050565b6000604051905090565b600080fd5b600080fd5b60007fffffffff0000000000000000000000000000000000000000000000000000000082169050919050565b611809816117d4565b811461181457600080fd5b50565b60008135905061182681611800565b92915050565b600060208284031215611842576118416117ca565b5b600061185084828501611817565b91505092915050565b60008115159050919050565b61186e81611859565b82525050565b60006020820190506118896000830184611865565b92915050565b600081519050919050565b600082825260208201905092915050565b60005b838110156118c95780820151818401526020810190506118ae565b60008484015250505050565b6000601f19601f8301169050919050565b60006118f18261188f565b6118fb818561189a565b935061190b8185602086016118ab565b611914816118d5565b840191505092915050565b6000602082019050818103600083015261193981846118e6565b905092915050565b6000819050919050565b61195481611941565b811461195f57600080fd5b50565b6000813590506119718161194b565b92915050565b60006020828403121561198d5761198c6117ca565b5b600061199b84828501611962565b91505092915050565b600073ffffffffffffffffffffffffffffffffffffffff82169050919050565b60006119cf826119a4565b9050919050565b6119df816119c4565b82525050565b60006020820190506119fa60008301846119d6565b92915050565b611a09816119c4565b8114611a1457600080fd5b50565b600081359050611a2681611a00565b92915050565b60008060408385031215611a4357611a426117ca565b5b6000611a5185828601611a17565b9250506020611a6285828601611962565b9150509250929050565b611a7581611941565b82525050565b6000602082019050611a906000830184611a6c565b92915050565b600080600060608486031215611aaf57611aae6117ca565b5b6000611abd86828701611a17565b9350506020611ace86828701611a17565b9250506040611adf86828701611962565b9150509250925092565b600060208284031215611aff57611afe6117ca565b5b6000611b0d84828501611a17565b91505092915050565b611b1f81611859565b8114611b2a57600080fd5b50565b600081359050611b3c81611b16565b92915050565b60008060408385031215611b5957611b586117ca565b5b6000611b6785828601611a17565b9250506020611b7885828601611b2d565b9150509250929050565b600080fd5b600080fd5b7f4e487b7100000000000000000000000000000000000000000000000000000000600052604160045260246000fd5b611bc4826118d5565b810181811067ffffffffffffffff82111715611be357611be2611b8c565b5b80604052505050565b6000611bf66117c0565b9050611c028282611bbb565b919050565b600067ffffffffffffffff821115611c2257611c21611b8c565b5b611c2b826118d5565b9050602081019050919050565b82818337600083830152505050565b6000611c5a611c5584611c07565b611bec565b905082815260208101848484011115611c7657611c75611b87565b5b611c81848285611c38565b509392505050565b600082601f830112611c9e57611c9d611b82565b5b8135611cae848260208601611c47565b91505092915050565b60008060008060808587031215611cd157611cd06117ca565b5b6000611cdf87828801611a17565b9450506020611cf087828801611a17565b9350506040611d0187828801611962565b925050606085013567ffffffffffffffff811115611d2257611d216117cf565b5b611d2e87828801611c89565b91505092959194509250565b60008060408385031215611d5157611d506117ca565b5b6000611d5f85828601611a17565b9250506020611d7085828601611a17565b9150509250929050565b7f4e487b7100000000000000000000000000000000000000000000000000000000600052602260045260246000fd5b60006002820490506001821680611dc157607f821691505b602082108103611dd457611dd3611d7a565b5b50919050565b6000606082019050611def60008301866119d6565b611dfc6020830185611a6c565b611e0960408301846119d6565b949350505050565b7f486f73706974616c546f6b656e3a2043616c6c6572206973206e6f742074686560008201527f2061646d696e0000000000000000000000000000000000000000000000000000602082015250565b6000611e6d60268361189a565b9150611e7882611e11565b604082019050919050565b60006020820190508181036000830152611e9c81611e60565b9050919050565b7f4e487b7100000000000000000000000000000000000000000000000000000000600052601160045260246000fd5b6000611edd82611941565b9150611ee883611941565b9250828201905080821115611f0057611eff611ea3565b5b92915050565b7f496e73756666696369656e742062616c616e6365000000000000000000000000600082015250565b6000611f3c60148361189a565b9150611f4782611f06565b602082019050919050565b60006020820190508181036000830152611f6b81611f2f565b9050919050565b6000611f7d82611941565b9150611f8883611941565b9250828203905081811115611fa057611f9f611ea3565b5b92915050565b600081905092915050565b6000611fbc8261188f565b611fc68185611fa6565b9350611fd68185602086016118ab565b80840191505092915050565b6000611fee8285611fb1565b9150611ffa8284611fb1565b91508190509392505050565b600081519050919050565b600082825260208201905092915050565b600061202d82612006565b6120378185612011565b93506120478185602086016118ab565b612050816118d5565b840191505092915050565b600060808201905061207060008301876119d6565b61207d60208301866119d6565b61208a6040830185611a6c565b818103606083015261209c8184612022565b905095945050505050565b6000815190506120b681611800565b92915050565b6000602082840312156120d2576120d16117ca565b5b60006120e0848285016120a7565b91505092915050565b7f4e487b7100000000000000000000000000000000000000000000000000000000600052601260045260246000fd5b600060408201905061212d60008301856119d6565b61213a6020830184611a6c565b939250505056fea2646970667358221220fca32e0f7317d7e329f13f538b3a5d0f771f751510f3e2dc7505d1c6f450cdda64736f6c63430008140033",
  "linkReferences": {},
  "deployedLinkReferences": {}
}