{
  "_format": "hh-sol-artifact-1",
  "contractName": "MedicalRecordToken",
  "sourceName": "contracts/MyNFT.sol",
  "abi": [
    {
      "inputs": [],
      "stateMutability": "nonpayable",
      "type": "constructor"
    },
    {
      "inputs": [
        {
          "internalType": "address",
          "name": "sender",
          "type": "address"
        },
        {
          "internalType": "uint256",
          "name": "tokenId",
          "type": "uint256"
        },
        {
          "internalType": "address",
          "name": "owner",
          "type": "address"
        }
      ],
      "name": "ERC721IncorrectOwner",
      "type": "error"
    },
    {
      "inputs": [
        {
          "internalType": "address",
          "name": "operator",
          "type": "address"
        },
        {
          "internalType": "uint256",
          "name": "tokenId",
          "type": "uint256"
        }
      ],
      "name": "ERC721InsufficientApproval",
      "type": "error"
    },
    {
      "inputs": [
        {
          "internalType": "address",
          "name": "approver",
          "type": "address"
        }
      ],
      "name": "ERC721InvalidApprover",
      "type": "error"
    },
    {
      "inputs": [
        {
          "internalType": "address",
          "name": "operator",
          "type": "address"
        }
      ],
      "name": "ERC721InvalidOperator",
      "type": "error"
    },
    {
      "inputs": [
        {
          "internalType": "address",
          "name": "owner",
          "type": "address"
        }
      ],
      "name": "ERC721InvalidOwner",
      "type": "error"
    },
    {
      "inputs": [
        {
          "internalType": "address",
          "name": "receiver",
          "type": "address"
        }
      ],
      "name": "ERC721InvalidReceiver",
      "type": "error"
    },
    {
      "inputs": [
        {
          "internalType": "address",
          "name": "sender",
          "type": "address"
        }
      ],
      "name": "ERC721InvalidSender",
      "type": "error"
    },
    {
      "inputs": [
        {
          "internalType": "uint256",
          "name": "tokenId",
          "type": "uint256"
        }
      ],
      "name": "ERC721NonexistentToken",
      "type": "error"
    },
    {
      "anonymous": false,
      "inputs": [
        {
          "indexed": true,
          "internalType": "address",
          "name": "owner",
          "type": "address"
        },
        {
          "indexed": true,
          "internalType": "address",
          "name": "approved",
          "type": "address"
        },
        {
          "indexed": true,
          "internalType": "uint256",
          "name": "tokenId",
          "type": "uint256"
        }
      ],
      "name": "Approval",
      "type": "event"
    },
    {
      "anonymous": false,
      "inputs": [
        {
          "indexed": true,
          "internalType": "address",
          "name": "owner",
          "type": "address"
        },
        {
          "indexed": true,
          "internalType": "address",
          "name": "operator",
          "type": "address"
        },
        {
          "indexed": false,
          "internalType": "bool",
          "name": "approved",
          "type": "bool"
        }
      ],
      "name": "ApprovalForAll",
      "type": "event"
    },
    {
      "anonymous": false,
      "inputs": [
        {
          "indexed": true,
          "internalType": "address",
          "name": "from",
          "type": "address"
        },
        {
          "indexed": true,
          "internalType": "address",
          "name": "to",
          "type": "address"
        },
        {
          "indexed": true,
          "internalType": "uint256",
          "name": "tokenId",
          "type": "uint256"
        }
      ],
      "name": "Transfer",
      "type": "event"
    },
    {
      "inputs": [
        {
          "internalType": "address",
          "name": "to",
          "type": "address"
        },
        {
          "internalType": "uint256",
          "name": "tokenId",
          "type": "uint256"
        }
      ],
      "name": "approve",
      "outputs": [],
      "stateMutability": "nonpayable",
      "type": "function"
    },
    {
      "inputs": [
        {
          "internalType": "address",
          "name": "owner",
          "type": "address"
        }
      ],
      "name": "balanceOf",
      "outputs": [
        {
          "internalType": "uint256",
          "name": "",
          "type": "uint256"
        }
      ],
      "stateMutability": "view",
      "type": "function"
    },
    {
      "inputs": [
        {
          "internalType": "uint256",
          "name": "tokenId",
          "type": "uint256"
        }
      ],
      "name": "getApproved",
      "outputs": [
        {
          "internalType": "address",
          "name": "",
          "type": "address"
        }
      ],
      "stateMutability": "view",
      "type": "function"
    },
    {
      "inputs": [
        {
          "internalType": "uint256",
          "name": "tokenId",
          "type": "uint256"
        }
      ],
      "name": "getTextData",
      "outputs": [
        {
          "internalType": "uint256",
          "name": "",
          "type": "uint256"
        },
        {
          "internalType": "string",
          "name": "",
          "type": "string"
        }
      ],
      "stateMutability": "view",
      "type": "function"
    },
    {
      "inputs": [],
      "name": "hospitalToken",
      "outputs": [
        {
          "internalType": "contract HospitalToken",
          "name": "",
          "type": "address"
        }
      ],
      "stateMutability": "view",
      "type": "function"
    },
    {
      "inputs": [
        {
          "internalType": "address",
          "name": "owner",
          "type": "address"
        },
        {
          "internalType": "address",
          "name": "operator",
          "type": "address"
        }
      ],
      "name": "isApprovedForAll",
      "outputs": [
        {
          "internalType": "bool",
          "name": "",
          "type": "bool"
        }
      ],
      "stateMutability": "view",
      "type": "function"
    },
    {
      "inputs": [
        {
          "internalType": "address",
          "name": "admin",
          "type": "address"
        },
        {
          "internalType": "address",
          "name": "to",
          "type": "address"
        },
        {
          "internalType": "string",
          "name": "p_data",
          "type": "string"
        }
      ],
      "name": "mint",
      "outputs": [],
      "stateMutability": "nonpayable",
      "type": "function"
    },
    {
      "inputs": [],
      "name": "name",
      "outputs": [
        {
          "internalType": "string",
          "name": "",
          "type": "string"
        }
      ],
      "stateMutability": "view",
      "type": "function"
    },
    {
      "inputs": [
        {
          "internalType": "uint256",
          "name": "tokenId",
          "type": "uint256"
        }
      ],
      "name": "ownerOf",
      "outputs": [
        {
          "internalType": "address",
          "name": "",
          "type": "address"
        }
      ],
      "stateMutability": "view",
      "type": "function"
    },
    {
      "inputs": [
        {
          "internalType": "uint256",
          "name": "",
          "type": "uint256"
        }
      ],
      "name": "records",
      "outputs": [
        {
          "internalType": "uint256",
          "name": "tokenid",
          "type": "uint256"
        },
        {
          "internalType": "string",
          "name": "encryptedPatientData",
          "type": "string"
        }
      ],
      "stateMutability": "view",
      "type": "function"
    },
    {
      "inputs": [
        {
          "internalType": "address",
          "name": "from",
          "type": "address"
        },
        {
          "internalType": "address",
          "name": "to",
          "type": "address"
        },
        {
          "internalType": "uint256",
          "name": "tokenId",
          "type": "uint256"
        }
      ],
      "name": "safeTransferFrom",
      "outputs": [],
      "stateMutability": "nonpayable",
      "type": "function"
    },
    {
      "inputs": [
        {
          "internalType": "address",
          "name": "from",
          "type": "address"
        },
        {
          "internalType": "address",
          "name": "to",
          "type": "address"
        },
        {
          "internalType": "uint256",
          "name": "tokenId",
          "type": "uint256"
        },
        {
          "internalType": "bytes",
          "name": "data",
          "type": "bytes"
        }
      ],
      "name": "safeTransferFrom",
      "outputs": [],
      "stateMutability": "nonpayable",
      "type": "function"
    },
    {
      "inputs": [
        {
          "internalType": "address",
          "name": "operator",
          "type": "address"
        },
        {
          "internalType": "bool",
          "name": "approved",
          "type": "bool"
        }
      ],
      "name": "setApprovalForAll",
      "outputs": [],
      "stateMutability": "nonpayable",
      "type": "function"
    },
    {
      "inputs": [
        {
          "internalType": "bytes4",
          "name": "interfaceId",
          "type": "bytes4"
        }
      ],
      "name": "supportsInterface",
      "outputs": [
        {
          "internalType": "bool",
          "name": "",
          "type": "bool"
        }
      ],
      "stateMutability": "view",
      "type": "function"
    },
    {
      "inputs": [],
      "name": "symbol",
      "outputs": [
        {
          "internalType": "string",
          "name": "",
          "type": "string"
        }
      ],
      "stateMutability": "view",
      "type": "function"
    },
    {
      "inputs": [],
      "name": "tokenCounter",
      "outputs": [
        {
          "internalType": "uint256",
          "name": "",
          "type": "uint256"
        }
      ],
      "stateMutability": "view",
      "type": "function"
    },
    {
      "inputs": [
        {
          "internalType": "uint256",
          "name": "tokenId",
          "type": "uint256"
        }
      ],
      "name": "tokenURI",
      "outputs": [
        {
          "internalType": "string",
          "name": "",
          "type": "string"
        }
      ],
      "stateMutability": "view",
      "type": "function"
    },
    {
      "inputs": [
        {
          "internalType": "address",
          "name": "from",
          "type": "address"
        },
        {
          "internalType": "address",
          "name": "to",
          "type": "address"
        },
        {
          "internalType": "uint256",
          "name": "tokenId",
          "type": "uint256"
        }
      ],
      "name": "transferFrom",
      "outputs": [],
      "stateMutability": "nonpayable",
      "type": "function"
    }
  ],
  "bytecode": "0x60806040523480156200001157600080fd5b506040518060400160405280601281526020017f4d65646963616c5265636f7264546f6b656e00000000000000000000000000008152506040518060400160405280600381526020017f4d5254000000000000000000000000000000000000000000000000000000000081525081600090816200008f91906200036d565b508060019081620000a191906200036d565b505050600060068190555033600760006101000a81548173ffffffffffffffffffffffffffffffffffffffff021916908373ffffffffffffffffffffffffffffffffffffffff16021790555062000454565b600081519050919050565b7f4e487b7100000000000000000000000000000000000000000000000000000000600052604160045260246000fd5b7f4e487b7100000000000000000000000000000000000000000000000000000000600052602260045260246000fd5b600060028204905060018216806200017557607f821691505b6020821081036200018b576200018a6200012d565b5b50919050565b60008190508160005260206000209050919050565b60006020601f8301049050919050565b600082821b905092915050565b600060088302620001f57fffffffffffffffffffffffffffffffffffffffffffffffffffffffffffffffff82620001b6565b620002018683620001b6565b95508019841693508086168417925050509392505050565b6000819050919050565b6000819050919050565b60006200024e62000248620002428462000219565b62000223565b62000219565b9050919050565b6000819050919050565b6200026a836200022d565b62000282620002798262000255565b848454620001c3565b825550505050565b600090565b620002996200028a565b620002a68184846200025f565b505050565b5b81811015620002ce57620002c26000826200028f565b600181019050620002ac565b5050565b601f8211156200031d57620002e78162000191565b620002f284620001a6565b8101602085101562000302578190505b6200031a6200031185620001a6565b830182620002ab565b50505b505050565b600082821c905092915050565b6000620003426000198460080262000322565b1980831691505092915050565b60006200035d83836200032f565b9150826002028217905092915050565b6200037882620000f3565b67ffffffffffffffff811115620003945762000393620000fe565b5b620003a082546200015c565b620003ad828285620002d2565b600060209050601f831160018114620003e55760008415620003d0578287015190505b620003dc85826200034f565b8655506200044c565b601f198416620003f58662000191565b60005b828110156200041f57848901518255600182019150602085019450602081019050620003f8565b868310156200043f57848901516200043b601f8916826200032f565b8355505b6001600288020188555050505b505050505050565b61294280620004646000396000f3fe608060405234801561001057600080fd5b50600436106101165760003560e01c806368c0c8a1116100a2578063a22cb46511610071578063a22cb46514610307578063b88d4fde14610323578063c87b56dd1461033f578063d082e3811461036f578063e985e9c51461038d57610116565b806368c0c8a11461026a5780636e4fa6cf1461028857806370a08231146102b957806395d89b41146102e957610116565b8063221375a6116100e9578063221375a6146101b557806323b872dd146101d157806334461067146101ed57806342842e0e1461021e5780636352211e1461023a57610116565b806301ffc9a71461011b57806306fdde031461014b578063081812fc14610169578063095ea7b314610199575b600080fd5b61013560048036038101906101309190611aef565b6103bd565b6040516101429190611b37565b60405180910390f35b61015361049f565b6040516101609190611be2565b60405180910390f35b610183600480360381019061017e9190611c3a565b610531565b6040516101909190611ca8565b60405180910390f35b6101b360048036038101906101ae9190611cef565b61054d565b005b6101cf60048036038101906101ca9190611e64565b610563565b005b6101eb60048036038101906101e69190611ed3565b61064b565b005b61020760048036038101906102029190611c3a565b61074d565b604051610215929190611f35565b60405180910390f35b61023860048036038101906102339190611ed3565b6107f9565b005b610254600480360381019061024f9190611c3a565b610819565b6040516102619190611ca8565b60405180910390f35b61027261082b565b60405161027f9190611fc4565b60405180910390f35b6102a2600480360381019061029d9190611c3a565b610851565b6040516102b0929190611f35565b60405180910390f35b6102d360048036038101906102ce9190611fdf565b610a86565b6040516102e0919061200c565b60405180910390f35b6102f1610b40565b6040516102fe9190611be2565b60405180910390f35b610321600480360381019061031c9190612053565b610bd2565b005b61033d60048036038101906103389190612134565b610be8565b005b61035960048036038101906103549190611c3a565b610c05565b6040516103669190611be2565b60405180910390f35b610377610c6e565b604051610384919061200c565b60405180910390f35b6103a760048036038101906103a291906121b7565b610c74565b6040516103b49190611b37565b60405180910390f35b60007f80ac58cd000000000000000000000000000000000000000000000000000000007bffffffffffffffffffffffffffffffffffffffffffffffffffffffff1916827bffffffffffffffffffffffffffffffffffffffffffffffffffffffff1916148061048857507f5b5e139f000000000000000000000000000000000000000000000000000000007bffffffffffffffffffffffffffffffffffffffffffffffffffffffff1916827bffffffffffffffffffffffffffffffffffffffffffffffffffffffff1916145b80610498575061049782610d08565b5b9050919050565b6060600080546104ae90612226565b80601f01602080910402602001604051908101604052809291908181526020018280546104da90612226565b80156105275780601f106104fc57610100808354040283529160200191610527565b820191906000526020600020905b81548152906001019060200180831161050a57829003601f168201915b5050505050905090565b600061053c82610d72565b5061054682610dfa565b9050919050565b61055f828261055a610e37565b610e3f565b5050565b8273ffffffffffffffffffffffffffffffffffffffff163373ffffffffffffffffffffffffffffffffffffffff16146105d1576040517f08c379a00000000000000000000000000000000000000000000000000000000081526004016105c8906122c9565b60405180910390fd5b600060065490506105e28382610e51565b60405180604001604052808281526020018381525060086000838152602001908152602001600020600082015181600001556020820151816001019081610629919061248b565b50905050600660008154809291906106409061258c565b919050555050505050565b600073ffffffffffffffffffffffffffffffffffffffff168273ffffffffffffffffffffffffffffffffffffffff16036106bd5760006040517f64a0ae920000000000000000000000000000000000000000000000000000000081526004016106b49190611ca8565b60405180910390fd5b60006106d183836106cc610e37565b610e6f565b90508373ffffffffffffffffffffffffffffffffffffffff168173ffffffffffffffffffffffffffffffffffffffff1614610747578382826040517f64283d7b00000000000000000000000000000000000000000000000000000000815260040161073e939291906125d4565b60405180910390fd5b50505050565b600860205280600052604060002060009150905080600001549080600101805461077690612226565b80601f01602080910402602001604051908101604052809291908181526020018280546107a290612226565b80156107ef5780601f106107c4576101008083540402835291602001916107ef565b820191906000526020600020905b8154815290600101906020018083116107d257829003601f168201915b5050505050905082565b61081483838360405180602001604052806000815250610be8565b505050565b600061082482610d72565b9050919050565b600760009054906101000a900473ffffffffffffffffffffffffffffffffffffffff1681565b600060608261085f81610819565b73ffffffffffffffffffffffffffffffffffffffff163373ffffffffffffffffffffffffffffffffffffffff16148061093357506000600760009054906101000a900473ffffffffffffffffffffffffffffffffffffffff1673ffffffffffffffffffffffffffffffffffffffff1663e3d670d7336040518263ffffffff1660e01b81526004016108f09190611ca8565b602060405180830381865afa15801561090d573d6000803e3d6000fd5b505050506040513d601f19601f820116820180604052508101906109319190612620565b115b610972576040517f08c379a0000000000000000000000000000000000000000000000000000000008152600401610969906126bf565b60405180910390fd5b6006548411156109b7576040517f08c379a00000000000000000000000000000000000000000000000000000000081526004016109ae90612751565b60405180910390fd5b600060086000868152602001908152602001600020604051806040016040529081600082015481526020016001820180546109f190612226565b80601f0160208091040260200160405190810160405280929190818152602001828054610a1d90612226565b8015610a6a5780601f10610a3f57610100808354040283529160200191610a6a565b820191906000526020600020905b815481529060010190602001808311610a4d57829003601f168201915b5050505050815250509050848160200151935093505050915091565b60008073ffffffffffffffffffffffffffffffffffffffff168273ffffffffffffffffffffffffffffffffffffffff1603610af95760006040517f89c62b64000000000000000000000000000000000000000000000000000000008152600401610af09190611ca8565b60405180910390fd5b600360008373ffffffffffffffffffffffffffffffffffffffff1673ffffffffffffffffffffffffffffffffffffffff168152602001908152602001600020549050919050565b606060018054610b4f90612226565b80601f0160208091040260200160405190810160405280929190818152602001828054610b7b90612226565b8015610bc85780601f10610b9d57610100808354040283529160200191610bc8565b820191906000526020600020905b815481529060010190602001808311610bab57829003601f168201915b5050505050905090565b610be4610bdd610e37565b8383611089565b5050565b610bf384848461064b565b610bff848484846111f8565b50505050565b6060610c1082610d72565b506000610c1b6113af565b90506000815111610c3b5760405180602001604052806000815250610c66565b80610c45846113c6565b604051602001610c569291906127ad565b6040516020818303038152906040525b915050919050565b60065481565b6000600560008473ffffffffffffffffffffffffffffffffffffffff1673ffffffffffffffffffffffffffffffffffffffff16815260200190815260200160002060008373ffffffffffffffffffffffffffffffffffffffff1673ffffffffffffffffffffffffffffffffffffffff16815260200190815260200160002060009054906101000a900460ff16905092915050565b60007f01ffc9a7000000000000000000000000000000000000000000000000000000007bffffffffffffffffffffffffffffffffffffffffffffffffffffffff1916827bffffffffffffffffffffffffffffffffffffffffffffffffffffffff1916149050919050565b600080610d7e83611494565b9050600073ffffffffffffffffffffffffffffffffffffffff168173ffffffffffffffffffffffffffffffffffffffff1603610df157826040517f7e273289000000000000000000000000000000000000000000000000000000008152600401610de8919061200c565b60405180910390fd5b80915050919050565b60006004600083815260200190815260200160002060009054906101000a900473ffffffffffffffffffffffffffffffffffffffff169050919050565b600033905090565b610e4c83838360016114d1565b505050565b610e6b828260405180602001604052806000815250611696565b5050565b600080610e7b84611494565b9050600073ffffffffffffffffffffffffffffffffffffffff168373ffffffffffffffffffffffffffffffffffffffff1614610ebd57610ebc8184866116b2565b5b600073ffffffffffffffffffffffffffffffffffffffff168173ffffffffffffffffffffffffffffffffffffffff1614610f4e57610eff6000856000806114d1565b6001600360008373ffffffffffffffffffffffffffffffffffffffff1673ffffffffffffffffffffffffffffffffffffffff168152602001908152602001600020600082825403925050819055505b600073ffffffffffffffffffffffffffffffffffffffff168573ffffffffffffffffffffffffffffffffffffffff1614610fd1576001600360008773ffffffffffffffffffffffffffffffffffffffff1673ffffffffffffffffffffffffffffffffffffffff168152602001908152602001600020600082825401925050819055505b846002600086815260200190815260200160002060006101000a81548173ffffffffffffffffffffffffffffffffffffffff021916908373ffffffffffffffffffffffffffffffffffffffff160217905550838573ffffffffffffffffffffffffffffffffffffffff168273ffffffffffffffffffffffffffffffffffffffff167fddf252ad1be2c89b69c2b068fc378daa952ba7f163c4a11628f55a4df523b3ef60405160405180910390a4809150509392505050565b600073ffffffffffffffffffffffffffffffffffffffff168273ffffffffffffffffffffffffffffffffffffffff16036110fa57816040517f5b08ba180000000000000000000000000000000000000000000000000000000081526004016110f19190611ca8565b60405180910390fd5b80600560008573ffffffffffffffffffffffffffffffffffffffff1673ffffffffffffffffffffffffffffffffffffffff16815260200190815260200160002060008473ffffffffffffffffffffffffffffffffffffffff1673ffffffffffffffffffffffffffffffffffffffff16815260200190815260200160002060006101000a81548160ff0219169083151502179055508173ffffffffffffffffffffffffffffffffffffffff168373ffffffffffffffffffffffffffffffffffffffff167f17307eab39ab6107e8899845ad3d59bd9653f200f220920489ca2b5937696c31836040516111eb9190611b37565b60405180910390a3505050565b60008373ffffffffffffffffffffffffffffffffffffffff163b11156113a9578273ffffffffffffffffffffffffffffffffffffffff1663150b7a0261123c610e37565b8685856040518563ffffffff1660e01b815260040161125e9493929190612826565b6020604051808303816000875af192505050801561129a57506040513d601f19601f820116820180604052508101906112979190612887565b60015b61131e573d80600081146112ca576040519150601f19603f3d011682016040523d82523d6000602084013e6112cf565b606091505b50600081510361131657836040517f64a0ae9200000000000000000000000000000000000000000000000000000000815260040161130d9190611ca8565b60405180910390fd5b805181602001fd5b63150b7a0260e01b7bffffffffffffffffffffffffffffffffffffffffffffffffffffffff1916817bffffffffffffffffffffffffffffffffffffffffffffffffffffffff1916146113a757836040517f64a0ae9200000000000000000000000000000000000000000000000000000000815260040161139e9190611ca8565b60405180910390fd5b505b50505050565b606060405180602001604052806000815250905090565b6060600060016113d584611776565b01905060008167ffffffffffffffff8111156113f4576113f3611d39565b5b6040519080825280601f01601f1916602001820160405280156114265781602001600182028036833780820191505090505b509050600082602001820190505b600115611489578080600190039150507f3031323334353637383961626364656600000000000000000000000000000000600a86061a8153600a858161147d5761147c6128b4565b5b04945060008503611434575b819350505050919050565b60006002600083815260200190815260200160002060009054906101000a900473ffffffffffffffffffffffffffffffffffffffff169050919050565b808061150a5750600073ffffffffffffffffffffffffffffffffffffffff168273ffffffffffffffffffffffffffffffffffffffff1614155b1561163e57600061151a84610d72565b9050600073ffffffffffffffffffffffffffffffffffffffff168373ffffffffffffffffffffffffffffffffffffffff161415801561158557508273ffffffffffffffffffffffffffffffffffffffff168173ffffffffffffffffffffffffffffffffffffffff1614155b801561159857506115968184610c74565b155b156115da57826040517fa9fbf51f0000000000000000000000000000000000000000000000000000000081526004016115d19190611ca8565b60405180910390fd5b811561163c57838573ffffffffffffffffffffffffffffffffffffffff168273ffffffffffffffffffffffffffffffffffffffff167f8c5be1e5ebec7d5bd14f71427d1e84f3dd0314c0f7b2291e5b200ac8c7c3b92560405160405180910390a45b505b836004600085815260200190815260200160002060006101000a81548173ffffffffffffffffffffffffffffffffffffffff021916908373ffffffffffffffffffffffffffffffffffffffff16021790555050505050565b6116a083836118c9565b6116ad60008484846111f8565b505050565b6116bd8383836119c2565b61177157600073ffffffffffffffffffffffffffffffffffffffff168373ffffffffffffffffffffffffffffffffffffffff160361173257806040517f7e273289000000000000000000000000000000000000000000000000000000008152600401611729919061200c565b60405180910390fd5b81816040517f177e802f0000000000000000000000000000000000000000000000000000000081526004016117689291906128e3565b60405180910390fd5b505050565b600080600090507a184f03e93ff9f4daa797ed6e38ed64bf6a1f01000000000000000083106117d4577a184f03e93ff9f4daa797ed6e38ed64bf6a1f01000000000000000083816117ca576117c96128b4565b5b0492506040810190505b6d04ee2d6d415b85acef81000000008310611811576d04ee2d6d415b85acef81000000008381611807576118066128b4565b5b0492506020810190505b662386f26fc10000831061184057662386f26fc100008381611836576118356128b4565b5b0492506010810190505b6305f5e1008310611869576305f5e100838161185f5761185e6128b4565b5b0492506008810190505b612710831061188e576127108381611884576118836128b4565b5b0492506004810190505b606483106118b157606483816118a7576118a66128b4565b5b0492506002810190505b600a83106118c0576001810190505b80915050919050565b600073ffffffffffffffffffffffffffffffffffffffff168273ffffffffffffffffffffffffffffffffffffffff160361193b5760006040517f64a0ae920000000000000000000000000000000000000000000000000000000081526004016119329190611ca8565b60405180910390fd5b600061194983836000610e6f565b9050600073ffffffffffffffffffffffffffffffffffffffff168173ffffffffffffffffffffffffffffffffffffffff16146119bd5760006040517f73c6ac6e0000000000000000000000000000000000000000000000000000000081526004016119b49190611ca8565b60405180910390fd5b505050565b60008073ffffffffffffffffffffffffffffffffffffffff168373ffffffffffffffffffffffffffffffffffffffff1614158015611a7a57508273ffffffffffffffffffffffffffffffffffffffff168473ffffffffffffffffffffffffffffffffffffffff161480611a3b5750611a3a8484610c74565b5b80611a7957508273ffffffffffffffffffffffffffffffffffffffff16611a6183610dfa565b73ffffffffffffffffffffffffffffffffffffffff16145b5b90509392505050565b6000604051905090565b600080fd5b600080fd5b60007fffffffff0000000000000000000000000000000000000000000000000000000082169050919050565b611acc81611a97565b8114611ad757600080fd5b50565b600081359050611ae981611ac3565b92915050565b600060208284031215611b0557611b04611a8d565b5b6000611b1384828501611ada565b91505092915050565b60008115159050919050565b611b3181611b1c565b82525050565b6000602082019050611b4c6000830184611b28565b92915050565b600081519050919050565b600082825260208201905092915050565b60005b83811015611b8c578082015181840152602081019050611b71565b60008484015250505050565b6000601f19601f8301169050919050565b6000611bb482611b52565b611bbe8185611b5d565b9350611bce818560208601611b6e565b611bd781611b98565b840191505092915050565b60006020820190508181036000830152611bfc8184611ba9565b905092915050565b6000819050919050565b611c1781611c04565b8114611c2257600080fd5b50565b600081359050611c3481611c0e565b92915050565b600060208284031215611c5057611c4f611a8d565b5b6000611c5e84828501611c25565b91505092915050565b600073ffffffffffffffffffffffffffffffffffffffff82169050919050565b6000611c9282611c67565b9050919050565b611ca281611c87565b82525050565b6000602082019050611cbd6000830184611c99565b92915050565b611ccc81611c87565b8114611cd757600080fd5b50565b600081359050611ce981611cc3565b92915050565b60008060408385031215611d0657611d05611a8d565b5b6000611d1485828601611cda565b9250506020611d2585828601611c25565b9150509250929050565b600080fd5b600080fd5b7f4e487b7100000000000000000000000000000000000000000000000000000000600052604160045260246000fd5b611d7182611b98565b810181811067ffffffffffffffff82111715611d9057611d8f611d39565b5b80604052505050565b6000611da3611a83565b9050611daf8282611d68565b919050565b600067ffffffffffffffff821115611dcf57611dce611d39565b5b611dd882611b98565b9050602081019050919050565b82818337600083830152505050565b6000611e07611e0284611db4565b611d99565b905082815260208101848484011115611e2357611e22611d34565b5b611e2e848285611de5565b509392505050565b600082601f830112611e4b57611e4a611d2f565b5b8135611e5b848260208601611df4565b91505092915050565b600080600060608486031215611e7d57611e7c611a8d565b5b6000611e8b86828701611cda565b9350506020611e9c86828701611cda565b925050604084013567ffffffffffffffff811115611ebd57611ebc611a92565b5b611ec986828701611e36565b9150509250925092565b600080600060608486031215611eec57611eeb611a8d565b5b6000611efa86828701611cda565b9350506020611f0b86828701611cda565b9250506040611f1c86828701611c25565b9150509250925092565b611f2f81611c04565b82525050565b6000604082019050611f4a6000830185611f26565b8181036020830152611f5c8184611ba9565b90509392505050565b6000819050919050565b6000611f8a611f85611f8084611c67565b611f65565b611c67565b9050919050565b6000611f9c82611f6f565b9050919050565b6000611fae82611f91565b9050919050565b611fbe81611fa3565b82525050565b6000602082019050611fd96000830184611fb5565b92915050565b600060208284031215611ff557611ff4611a8d565b5b600061200384828501611cda565b91505092915050565b60006020820190506120216000830184611f26565b92915050565b61203081611b1c565b811461203b57600080fd5b50565b60008135905061204d81612027565b92915050565b6000806040838503121561206a57612069611a8d565b5b600061207885828601611cda565b92505060206120898582860161203e565b9150509250929050565b600067ffffffffffffffff8211156120ae576120ad611d39565b5b6120b782611b98565b9050602081019050919050565b60006120d76120d284612093565b611d99565b9050828152602081018484840111156120f3576120f2611d34565b5b6120fe848285611de5565b509392505050565b600082601f83011261211b5761211a611d2f565b5b813561212b8482602086016120c4565b91505092915050565b6000806000806080858703121561214e5761214d611a8d565b5b600061215c87828801611cda565b945050602061216d87828801611cda565b935050604061217e87828801611c25565b925050606085013567ffffffffffffffff81111561219f5761219e611a92565b5b6121ab87828801612106565b91505092959194509250565b600080604083850312156121ce576121cd611a8d565b5b60006121dc85828601611cda565b92505060206121ed85828601611cda565b9150509250929050565b7f4e487b7100000000000000000000000000000000000000000000000000000000600052602260045260246000fd5b6000600282049050600182168061223e57607f821691505b602082108103612251576122506121f7565b5b50919050565b7f4d65646963616c5265636f7264546f6b656e3a2043616c6c6572206973206e6f60008201527f74207468652061646d696e000000000000000000000000000000000000000000602082015250565b60006122b3602b83611b5d565b91506122be82612257565b604082019050919050565b600060208201905081810360008301526122e2816122a6565b9050919050565b60008190508160005260206000209050919050565b60006020601f8301049050919050565b600082821b905092915050565b60006008830261234b7fffffffffffffffffffffffffffffffffffffffffffffffffffffffffffffffff8261230e565b612355868361230e565b95508019841693508086168417925050509392505050565b600061238861238361237e84611c04565b611f65565b611c04565b9050919050565b6000819050919050565b6123a28361236d565b6123b66123ae8261238f565b84845461231b565b825550505050565b600090565b6123cb6123be565b6123d6818484612399565b505050565b5b818110156123fa576123ef6000826123c3565b6001810190506123dc565b5050565b601f82111561243f57612410816122e9565b612419846122fe565b81016020851015612428578190505b61243c612434856122fe565b8301826123db565b50505b505050565b600082821c905092915050565b600061246260001984600802612444565b1980831691505092915050565b600061247b8383612451565b9150826002028217905092915050565b61249482611b52565b67ffffffffffffffff8111156124ad576124ac611d39565b5b6124b78254612226565b6124c28282856123fe565b600060209050601f8311600181146124f557600084156124e3578287015190505b6124ed858261246f565b865550612555565b601f198416612503866122e9565b60005b8281101561252b57848901518255600182019150602085019450602081019050612506565b868310156125485784890151612544601f891682612451565b8355505b6001600288020188555050505b505050505050565b7f4e487b7100000000000000000000000000000000000000000000000000000000600052601160045260246000fd5b600061259782611c04565b91507fffffffffffffffffffffffffffffffffffffffffffffffffffffffffffffffff82036125c9576125c861255d565b5b600182019050919050565b60006060820190506125e96000830186611c99565b6125f66020830185611f26565b6126036040830184611c99565b949350505050565b60008151905061261a81611c0e565b92915050565b60006020828403121561263657612635611a8d565b5b60006126448482850161260b565b91505092915050565b7f4d65646963616c5265636f7264546f6b656e3a20596f7520617265206e6f742060008201527f616c6c6f77656420746f20766965772074686973207265636f72640000000000602082015250565b60006126a9603b83611b5d565b91506126b48261264d565b604082019050919050565b600060208201905081810360008301526126d88161269c565b9050919050565b7f4d65646963616c5265636f72644e46543a2055524920717565727920666f722060008201527f6e6f6e6578697374656e7420746f6b656e000000000000000000000000000000602082015250565b600061273b603183611b5d565b9150612746826126df565b604082019050919050565b6000602082019050818103600083015261276a8161272e565b9050919050565b600081905092915050565b600061278782611b52565b6127918185612771565b93506127a1818560208601611b6e565b80840191505092915050565b60006127b9828561277c565b91506127c5828461277c565b91508190509392505050565b600081519050919050565b600082825260208201905092915050565b60006127f8826127d1565b61280281856127dc565b9350612812818560208601611b6e565b61281b81611b98565b840191505092915050565b600060808201905061283b6000830187611c99565b6128486020830186611c99565b6128556040830185611f26565b818103606083015261286781846127ed565b905095945050505050565b60008151905061288181611ac3565b92915050565b60006020828403121561289d5761289c611a8d565b5b60006128ab84828501612872565b91505092915050565b7f4e487b7100000000000000000000000000000000000000000000000000000000600052601260045260246000fd5b60006040820190506128f86000830185611c99565b6129056020830184611f26565b939250505056fea26469706673582212201841aca6e00eb5dbbeb1b2e90c771c83e940175f8b9b5a81e6a51e9fbb5396f564736f6c63430008140033",
  "linkReferences": {},
  "deployedLinkReferences": {}
}