{
  "_format": "hh-sol-artifact-1",
  "contractName": "MedicalRecordToken",
  "sourceName": "contracts/MyNFT.sol",
  "abi": [
    {
      "inputs": [
        {
          "internalType": "address",
          "name": "_hospitalTokenAddress",
          "type": "address"
        },
        {
          "internalType": "string",
          "name": "name",
          "type": "string"
        },
        {
          "internalType": "string",
          "name": "symbol",
          "type": "string"
        }
      ],
      "stateMutability": "nonpayable",
      "type": "constructor"
    },
    {
      "inputs": [
        {
          "internalType": "address",
          "name": "sender",
          "type": "address"
        },
        {
          "internalType": "uint256",
          "name": "tokenId",
          "type": "uint256"
        },
        {
          "internalType": "address",
          "name": "owner",
          "type": "address"
        }
      ],
      "name": "ERC721IncorrectOwner",
      "type": "error"
    },
    {
      "inputs": [
        {
          "internalType": "address",
          "name": "operator",
          "type": "address"
        },
        {
          "internalType": "uint256",
          "name": "tokenId",
          "type": "uint256"
        }
      ],
      "name": "ERC721InsufficientApproval",
      "type": "error"
    },
    {
      "inputs": [
        {
          "internalType": "address",
          "name": "approver",
          "type": "address"
        }
      ],
      "name": "ERC721InvalidApprover",
      "type": "error"
    },
    {
      "inputs": [
        {
          "internalType": "address",
          "name": "operator",
          "type": "address"
        }
      ],
      "name": "ERC721InvalidOperator",
      "type": "error"
    },
    {
      "inputs": [
        {
          "internalType": "address",
          "name": "owner",
          "type": "address"
        }
      ],
      "name": "ERC721InvalidOwner",
      "type": "error"
    },
    {
      "inputs": [
        {
          "internalType": "address",
          "name": "receiver",
          "type": "address"
        }
      ],
      "name": "ERC721InvalidReceiver",
      "type": "error"
    },
    {
      "inputs": [
        {
          "internalType": "address",
          "name": "sender",
          "type": "address"
        }
      ],
      "name": "ERC721InvalidSender",
      "type": "error"
    },
    {
      "inputs": [
        {
          "internalType": "uint256",
          "name": "tokenId",
          "type": "uint256"
        }
      ],
      "name": "ERC721NonexistentToken",
      "type": "error"
    },
    {
      "anonymous": false,
      "inputs": [
        {
          "indexed": true,
          "internalType": "address",
          "name": "owner",
          "type": "address"
        },
        {
          "indexed": true,
          "internalType": "address",
          "name": "approved",
          "type": "address"
        },
        {
          "indexed": true,
          "internalType": "uint256",
          "name": "tokenId",
          "type": "uint256"
        }
      ],
      "name": "Approval",
      "type": "event"
    },
    {
      "anonymous": false,
      "inputs": [
        {
          "indexed": true,
          "internalType": "address",
          "name": "owner",
          "type": "address"
        },
        {
          "indexed": true,
          "internalType": "address",
          "name": "operator",
          "type": "address"
        },
        {
          "indexed": false,
          "internalType": "bool",
          "name": "approved",
          "type": "bool"
        }
      ],
      "name": "ApprovalForAll",
      "type": "event"
    },
    {
      "anonymous": false,
      "inputs": [
        {
          "indexed": true,
          "internalType": "address",
          "name": "from",
          "type": "address"
        },
        {
          "indexed": true,
          "internalType": "address",
          "name": "to",
          "type": "address"
        },
        {
          "indexed": true,
          "internalType": "uint256",
          "name": "tokenId",
          "type": "uint256"
        }
      ],
      "name": "Transfer",
      "type": "event"
    },
    {
      "inputs": [
        {
          "internalType": "address",
          "name": "to",
          "type": "address"
        },
        {
          "internalType": "uint256",
          "name": "tokenId",
          "type": "uint256"
        }
      ],
      "name": "approve",
      "outputs": [],
      "stateMutability": "nonpayable",
      "type": "function"
    },
    {
      "inputs": [
        {
          "internalType": "address",
          "name": "owner",
          "type": "address"
        }
      ],
      "name": "balanceOf",
      "outputs": [
        {
          "internalType": "uint256",
          "name": "",
          "type": "uint256"
        }
      ],
      "stateMutability": "view",
      "type": "function"
    },
    {
      "inputs": [
        {
          "internalType": "uint256",
          "name": "tokenId",
          "type": "uint256"
        }
      ],
      "name": "getApproved",
      "outputs": [
        {
          "internalType": "address",
          "name": "",
          "type": "address"
        }
      ],
      "stateMutability": "view",
      "type": "function"
    },
    {
      "inputs": [
        {
          "internalType": "uint256",
          "name": "tokenId",
          "type": "uint256"
        }
      ],
      "name": "getTextData",
      "outputs": [
        {
          "internalType": "uint256",
          "name": "",
          "type": "uint256"
        },
        {
          "internalType": "string",
          "name": "",
          "type": "string"
        }
      ],
      "stateMutability": "view",
      "type": "function"
    },
    {
      "inputs": [],
      "name": "hospitalToken",
      "outputs": [
        {
          "internalType": "contract HospitalToken",
          "name": "",
          "type": "address"
        }
      ],
      "stateMutability": "view",
      "type": "function"
    },
    {
      "inputs": [
        {
          "internalType": "address",
          "name": "owner",
          "type": "address"
        },
        {
          "internalType": "address",
          "name": "operator",
          "type": "address"
        }
      ],
      "name": "isApprovedForAll",
      "outputs": [
        {
          "internalType": "bool",
          "name": "",
          "type": "bool"
        }
      ],
      "stateMutability": "view",
      "type": "function"
    },
    {
      "inputs": [
        {
          "internalType": "address",
          "name": "to",
          "type": "address"
        },
        {
          "internalType": "string",
          "name": "p_data",
          "type": "string"
        }
      ],
      "name": "mint",
      "outputs": [],
      "stateMutability": "nonpayable",
      "type": "function"
    },
    {
      "inputs": [],
      "name": "name",
      "outputs": [
        {
          "internalType": "string",
          "name": "",
          "type": "string"
        }
      ],
      "stateMutability": "view",
      "type": "function"
    },
    {
      "inputs": [
        {
          "internalType": "uint256",
          "name": "tokenId",
          "type": "uint256"
        }
      ],
      "name": "ownerOf",
      "outputs": [
        {
          "internalType": "address",
          "name": "",
          "type": "address"
        }
      ],
      "stateMutability": "view",
      "type": "function"
    },
    {
      "inputs": [
        {
          "internalType": "uint256",
          "name": "",
          "type": "uint256"
        }
      ],
      "name": "records",
      "outputs": [
        {
          "internalType": "uint256",
          "name": "tokenid",
          "type": "uint256"
        },
        {
          "internalType": "string",
          "name": "encryptedPatientData",
          "type": "string"
        }
      ],
      "stateMutability": "view",
      "type": "function"
    },
    {
      "inputs": [
        {
          "internalType": "address",
          "name": "from",
          "type": "address"
        },
        {
          "internalType": "address",
          "name": "to",
          "type": "address"
        },
        {
          "internalType": "uint256",
          "name": "tokenId",
          "type": "uint256"
        }
      ],
      "name": "safeTransferFrom",
      "outputs": [],
      "stateMutability": "nonpayable",
      "type": "function"
    },
    {
      "inputs": [
        {
          "internalType": "address",
          "name": "from",
          "type": "address"
        },
        {
          "internalType": "address",
          "name": "to",
          "type": "address"
        },
        {
          "internalType": "uint256",
          "name": "tokenId",
          "type": "uint256"
        },
        {
          "internalType": "bytes",
          "name": "data",
          "type": "bytes"
        }
      ],
      "name": "safeTransferFrom",
      "outputs": [],
      "stateMutability": "nonpayable",
      "type": "function"
    },
    {
      "inputs": [
        {
          "internalType": "address",
          "name": "operator",
          "type": "address"
        },
        {
          "internalType": "bool",
          "name": "approved",
          "type": "bool"
        }
      ],
      "name": "setApprovalForAll",
      "outputs": [],
      "stateMutability": "nonpayable",
      "type": "function"
    },
    {
      "inputs": [
        {
          "internalType": "bytes4",
          "name": "interfaceId",
          "type": "bytes4"
        }
      ],
      "name": "supportsInterface",
      "outputs": [
        {
          "internalType": "bool",
          "name": "",
          "type": "bool"
        }
      ],
      "stateMutability": "view",
      "type": "function"
    },
    {
      "inputs": [],
      "name": "symbol",
      "outputs": [
        {
          "internalType": "string",
          "name": "",
          "type": "string"
        }
      ],
      "stateMutability": "view",
      "type": "function"
    },
    {
      "inputs": [],
      "name": "tokenCounter",
      "outputs": [
        {
          "internalType": "uint256",
          "name": "",
          "type": "uint256"
        }
      ],
      "stateMutability": "view",
      "type": "function"
    },
    {
      "inputs": [
        {
          "internalType": "uint256",
          "name": "tokenId",
          "type": "uint256"
        }
      ],
      "name": "tokenURI",
      "outputs": [
        {
          "internalType": "string",
          "name": "",
          "type": "string"
        }
      ],
      "stateMutability": "view",
      "type": "function"
    },
    {
      "inputs": [
        {
          "internalType": "address",
          "name": "from",
          "type": "address"
        },
        {
          "internalType": "address",
          "name": "to",
          "type": "address"
        },
        {
          "internalType": "uint256",
          "name": "tokenId",
          "type": "uint256"
        }
      ],
      "name": "transferFrom",
      "outputs": [],
      "stateMutability": "nonpayable",
      "type": "function"
    }
  ],
  "bytecode": "0x60806040523480156200001157600080fd5b5060405162002f1d38038062002f1d833981810160405281019062000037919062000313565b6040518060400160405280601281526020017f4d65646963616c5265636f7264546f6b656e00000000000000000000000000008152506040518060400160405280600381526020017f4d525400000000000000000000000000000000000000000000000000000000008152508160009081620000b49190620005f8565b508060019081620000c69190620005f8565b505050600060068190555082600760006101000a81548173ffffffffffffffffffffffffffffffffffffffff021916908373ffffffffffffffffffffffffffffffffffffffff160217905550505050620006df565b6000604051905090565b600080fd5b600080fd5b600073ffffffffffffffffffffffffffffffffffffffff82169050919050565b60006200015c826200012f565b9050919050565b6200016e816200014f565b81146200017a57600080fd5b50565b6000815190506200018e8162000163565b92915050565b600080fd5b600080fd5b6000601f19601f8301169050919050565b7f4e487b7100000000000000000000000000000000000000000000000000000000600052604160045260246000fd5b620001e9826200019e565b810181811067ffffffffffffffff821117156200020b576200020a620001af565b5b80604052505050565b6000620002206200011b565b90506200022e8282620001de565b919050565b600067ffffffffffffffff821115620002515762000250620001af565b5b6200025c826200019e565b9050602081019050919050565b60005b83811015620002895780820151818401526020810190506200026c565b60008484015250505050565b6000620002ac620002a68462000233565b62000214565b905082815260208101848484011115620002cb57620002ca62000199565b5b620002d884828562000269565b509392505050565b600082601f830112620002f857620002f762000194565b5b81516200030a84826020860162000295565b91505092915050565b6000806000606084860312156200032f576200032e62000125565b5b60006200033f868287016200017d565b935050602084015167ffffffffffffffff8111156200036357620003626200012a565b5b6200037186828701620002e0565b925050604084015167ffffffffffffffff8111156200039557620003946200012a565b5b620003a386828701620002e0565b9150509250925092565b600081519050919050565b7f4e487b7100000000000000000000000000000000000000000000000000000000600052602260045260246000fd5b600060028204905060018216806200040057607f821691505b602082108103620004165762000415620003b8565b5b50919050565b60008190508160005260206000209050919050565b60006020601f8301049050919050565b600082821b905092915050565b600060088302620004807fffffffffffffffffffffffffffffffffffffffffffffffffffffffffffffffff8262000441565b6200048c868362000441565b95508019841693508086168417925050509392505050565b6000819050919050565b6000819050919050565b6000620004d9620004d3620004cd84620004a4565b620004ae565b620004a4565b9050919050565b6000819050919050565b620004f583620004b8565b6200050d6200050482620004e0565b8484546200044e565b825550505050565b600090565b6200052462000515565b62000531818484620004ea565b505050565b5b8181101562000559576200054d6000826200051a565b60018101905062000537565b5050565b601f821115620005a85762000572816200041c565b6200057d8462000431565b810160208510156200058d578190505b620005a56200059c8562000431565b83018262000536565b50505b505050565b600082821c905092915050565b6000620005cd60001984600802620005ad565b1980831691505092915050565b6000620005e88383620005ba565b9150826002028217905092915050565b6200060382620003ad565b67ffffffffffffffff8111156200061f576200061e620001af565b5b6200062b8254620003e7565b620006388282856200055d565b600060209050601f8311600181146200067057600084156200065b578287015190505b620006678582620005da565b865550620006d7565b601f19841662000680866200041c565b60005b82811015620006aa5784890151825560018201915060208501945060208101905062000683565b86831015620006ca5784890151620006c6601f891682620005ba565b8355505b6001600288020188555050505b505050505050565b61282e80620006ef6000396000f3fe608060405234801561001057600080fd5b50600436106101165760003560e01c80636e4fa6cf116100a2578063b88d4fde11610071578063b88d4fde14610307578063c87b56dd14610323578063d082e38114610353578063d0def52114610371578063e985e9c51461038d57610116565b80636e4fa6cf1461026c57806370a082311461029d57806395d89b41146102cd578063a22cb465146102eb57610116565b806323b872dd116100e957806323b872dd146101b557806334461067146101d157806342842e0e146102025780636352211e1461021e57806368c0c8a11461024e57610116565b806301ffc9a71461011b57806306fdde031461014b578063081812fc14610169578063095ea7b314610199575b600080fd5b61013560048036038101906101309190611a80565b6103bd565b6040516101429190611ac8565b60405180910390f35b61015361049f565b6040516101609190611b73565b60405180910390f35b610183600480360381019061017e9190611bcb565b610531565b6040516101909190611c39565b60405180910390f35b6101b360048036038101906101ae9190611c80565b61054d565b005b6101cf60048036038101906101ca9190611cc0565b610563565b005b6101eb60048036038101906101e69190611bcb565b610665565b6040516101f9929190611d22565b60405180910390f35b61021c60048036038101906102179190611cc0565b610711565b005b61023860048036038101906102339190611bcb565b610731565b6040516102459190611c39565b60405180910390f35b610256610743565b6040516102639190611db1565b60405180910390f35b61028660048036038101906102819190611bcb565b610769565b604051610294929190611d22565b60405180910390f35b6102b760048036038101906102b29190611dcc565b61099e565b6040516102c49190611df9565b60405180910390f35b6102d5610a58565b6040516102e29190611b73565b60405180910390f35b61030560048036038101906103009190611e40565b610aea565b005b610321600480360381019061031c9190611fb5565b610b00565b005b61033d60048036038101906103389190611bcb565b610b1d565b60405161034a9190611b73565b60405180910390f35b61035b610b86565b6040516103689190611df9565b60405180910390f35b61038b600480360381019061038691906120d9565b610b8c565b005b6103a760048036038101906103a29190612135565b610c05565b6040516103b49190611ac8565b60405180910390f35b60007f80ac58cd000000000000000000000000000000000000000000000000000000007bffffffffffffffffffffffffffffffffffffffffffffffffffffffff1916827bffffffffffffffffffffffffffffffffffffffffffffffffffffffff1916148061048857507f5b5e139f000000000000000000000000000000000000000000000000000000007bffffffffffffffffffffffffffffffffffffffffffffffffffffffff1916827bffffffffffffffffffffffffffffffffffffffffffffffffffffffff1916145b80610498575061049782610c99565b5b9050919050565b6060600080546104ae906121a4565b80601f01602080910402602001604051908101604052809291908181526020018280546104da906121a4565b80156105275780601f106104fc57610100808354040283529160200191610527565b820191906000526020600020905b81548152906001019060200180831161050a57829003601f168201915b5050505050905090565b600061053c82610d03565b5061054682610d8b565b9050919050565b61055f828261055a610dc8565b610dd0565b5050565b600073ffffffffffffffffffffffffffffffffffffffff168273ffffffffffffffffffffffffffffffffffffffff16036105d55760006040517f64a0ae920000000000000000000000000000000000000000000000000000000081526004016105cc9190611c39565b60405180910390fd5b60006105e983836105e4610dc8565b610de2565b90508373ffffffffffffffffffffffffffffffffffffffff168173ffffffffffffffffffffffffffffffffffffffff161461065f578382826040517f64283d7b000000000000000000000000000000000000000000000000000000008152600401610656939291906121d5565b60405180910390fd5b50505050565b600860205280600052604060002060009150905080600001549080600101805461068e906121a4565b80601f01602080910402602001604051908101604052809291908181526020018280546106ba906121a4565b80156107075780601f106106dc57610100808354040283529160200191610707565b820191906000526020600020905b8154815290600101906020018083116106ea57829003601f168201915b5050505050905082565b61072c83838360405180602001604052806000815250610b00565b505050565b600061073c82610d03565b9050919050565b600760009054906101000a900473ffffffffffffffffffffffffffffffffffffffff1681565b600060608261077781610731565b73ffffffffffffffffffffffffffffffffffffffff163373ffffffffffffffffffffffffffffffffffffffff16148061084b57506000600760009054906101000a900473ffffffffffffffffffffffffffffffffffffffff1673ffffffffffffffffffffffffffffffffffffffff166370a08231336040518263ffffffff1660e01b81526004016108089190611c39565b602060405180830381865afa158015610825573d6000803e3d6000fd5b505050506040513d601f19601f820116820180604052508101906108499190612221565b115b61088a576040517f08c379a0000000000000000000000000000000000000000000000000000000008152600401610881906122c0565b60405180910390fd5b6006548411156108cf576040517f08c379a00000000000000000000000000000000000000000000000000000000081526004016108c690612352565b60405180910390fd5b60006008600086815260200190815260200160002060405180604001604052908160008201548152602001600182018054610909906121a4565b80601f0160208091040260200160405190810160405280929190818152602001828054610935906121a4565b80156109825780601f1061095757610100808354040283529160200191610982565b820191906000526020600020905b81548152906001019060200180831161096557829003601f168201915b5050505050815250509050848160200151935093505050915091565b60008073ffffffffffffffffffffffffffffffffffffffff168273ffffffffffffffffffffffffffffffffffffffff1603610a115760006040517f89c62b64000000000000000000000000000000000000000000000000000000008152600401610a089190611c39565b60405180910390fd5b600360008373ffffffffffffffffffffffffffffffffffffffff1673ffffffffffffffffffffffffffffffffffffffff168152602001908152602001600020549050919050565b606060018054610a67906121a4565b80601f0160208091040260200160405190810160405280929190818152602001828054610a93906121a4565b8015610ae05780601f10610ab557610100808354040283529160200191610ae0565b820191906000526020600020905b815481529060010190602001808311610ac357829003601f168201915b5050505050905090565b610afc610af5610dc8565b8383610ffc565b5050565b610b0b848484610563565b610b178484848461116b565b50505050565b6060610b2882610d03565b506000610b33611322565b90506000815111610b535760405180602001604052806000815250610b7e565b80610b5d84611339565b604051602001610b6e9291906123ae565b6040516020818303038152906040525b915050919050565b60065481565b60006006549050610b9d8382611407565b60405180604001604052808281526020018381525060086000838152602001908152602001600020600082015181600001556020820151816001019081610be49190612574565b5090505060066000815480929190610bfb90612675565b9190505550505050565b6000600560008473ffffffffffffffffffffffffffffffffffffffff1673ffffffffffffffffffffffffffffffffffffffff16815260200190815260200160002060008373ffffffffffffffffffffffffffffffffffffffff1673ffffffffffffffffffffffffffffffffffffffff16815260200190815260200160002060009054906101000a900460ff16905092915050565b60007f01ffc9a7000000000000000000000000000000000000000000000000000000007bffffffffffffffffffffffffffffffffffffffffffffffffffffffff1916827bffffffffffffffffffffffffffffffffffffffffffffffffffffffff1916149050919050565b600080610d0f83611425565b9050600073ffffffffffffffffffffffffffffffffffffffff168173ffffffffffffffffffffffffffffffffffffffff1603610d8257826040517f7e273289000000000000000000000000000000000000000000000000000000008152600401610d799190611df9565b60405180910390fd5b80915050919050565b60006004600083815260200190815260200160002060009054906101000a900473ffffffffffffffffffffffffffffffffffffffff169050919050565b600033905090565b610ddd8383836001611462565b505050565b600080610dee84611425565b9050600073ffffffffffffffffffffffffffffffffffffffff168373ffffffffffffffffffffffffffffffffffffffff1614610e3057610e2f818486611627565b5b600073ffffffffffffffffffffffffffffffffffffffff168173ffffffffffffffffffffffffffffffffffffffff1614610ec157610e72600085600080611462565b6001600360008373ffffffffffffffffffffffffffffffffffffffff1673ffffffffffffffffffffffffffffffffffffffff168152602001908152602001600020600082825403925050819055505b600073ffffffffffffffffffffffffffffffffffffffff168573ffffffffffffffffffffffffffffffffffffffff1614610f44576001600360008773ffffffffffffffffffffffffffffffffffffffff1673ffffffffffffffffffffffffffffffffffffffff168152602001908152602001600020600082825401925050819055505b846002600086815260200190815260200160002060006101000a81548173ffffffffffffffffffffffffffffffffffffffff021916908373ffffffffffffffffffffffffffffffffffffffff160217905550838573ffffffffffffffffffffffffffffffffffffffff168273ffffffffffffffffffffffffffffffffffffffff167fddf252ad1be2c89b69c2b068fc378daa952ba7f163c4a11628f55a4df523b3ef60405160405180910390a4809150509392505050565b600073ffffffffffffffffffffffffffffffffffffffff168273ffffffffffffffffffffffffffffffffffffffff160361106d57816040517f5b08ba180000000000000000000000000000000000000000000000000000000081526004016110649190611c39565b60405180910390fd5b80600560008573ffffffffffffffffffffffffffffffffffffffff1673ffffffffffffffffffffffffffffffffffffffff16815260200190815260200160002060008473ffffffffffffffffffffffffffffffffffffffff1673ffffffffffffffffffffffffffffffffffffffff16815260200190815260200160002060006101000a81548160ff0219169083151502179055508173ffffffffffffffffffffffffffffffffffffffff168373ffffffffffffffffffffffffffffffffffffffff167f17307eab39ab6107e8899845ad3d59bd9653f200f220920489ca2b5937696c318360405161115e9190611ac8565b60405180910390a3505050565b60008373ffffffffffffffffffffffffffffffffffffffff163b111561131c578273ffffffffffffffffffffffffffffffffffffffff1663150b7a026111af610dc8565b8685856040518563ffffffff1660e01b81526004016111d19493929190612712565b6020604051808303816000875af192505050801561120d57506040513d601f19601f8201168201806040525081019061120a9190612773565b60015b611291573d806000811461123d576040519150601f19603f3d011682016040523d82523d6000602084013e611242565b606091505b50600081510361128957836040517f64a0ae920000000000000000000000000000000000000000000000000000000081526004016112809190611c39565b60405180910390fd5b805181602001fd5b63150b7a0260e01b7bffffffffffffffffffffffffffffffffffffffffffffffffffffffff1916817bffffffffffffffffffffffffffffffffffffffffffffffffffffffff19161461131a57836040517f64a0ae920000000000000000000000000000000000000000000000000000000081526004016113119190611c39565b60405180910390fd5b505b50505050565b606060405180602001604052806000815250905090565b606060006001611348846116eb565b01905060008167ffffffffffffffff81111561136757611366611e8a565b5b6040519080825280601f01601f1916602001820160405280156113995781602001600182028036833780820191505090505b509050600082602001820190505b6001156113fc578080600190039150507f3031323334353637383961626364656600000000000000000000000000000000600a86061a8153600a85816113f0576113ef6127a0565b5b049450600085036113a7575b819350505050919050565b61142182826040518060200160405280600081525061183e565b5050565b60006002600083815260200190815260200160002060009054906101000a900473ffffffffffffffffffffffffffffffffffffffff169050919050565b808061149b5750600073ffffffffffffffffffffffffffffffffffffffff168273ffffffffffffffffffffffffffffffffffffffff1614155b156115cf5760006114ab84610d03565b9050600073ffffffffffffffffffffffffffffffffffffffff168373ffffffffffffffffffffffffffffffffffffffff161415801561151657508273ffffffffffffffffffffffffffffffffffffffff168173ffffffffffffffffffffffffffffffffffffffff1614155b801561152957506115278184610c05565b155b1561156b57826040517fa9fbf51f0000000000000000000000000000000000000000000000000000000081526004016115629190611c39565b60405180910390fd5b81156115cd57838573ffffffffffffffffffffffffffffffffffffffff168273ffffffffffffffffffffffffffffffffffffffff167f8c5be1e5ebec7d5bd14f71427d1e84f3dd0314c0f7b2291e5b200ac8c7c3b92560405160405180910390a45b505b836004600085815260200190815260200160002060006101000a81548173ffffffffffffffffffffffffffffffffffffffff021916908373ffffffffffffffffffffffffffffffffffffffff16021790555050505050565b61163283838361185a565b6116e657600073ffffffffffffffffffffffffffffffffffffffff168373ffffffffffffffffffffffffffffffffffffffff16036116a757806040517f7e27328900000000000000000000000000000000000000000000000000000000815260040161169e9190611df9565b60405180910390fd5b81816040517f177e802f0000000000000000000000000000000000000000000000000000000081526004016116dd9291906127cf565b60405180910390fd5b505050565b600080600090507a184f03e93ff9f4daa797ed6e38ed64bf6a1f0100000000000000008310611749577a184f03e93ff9f4daa797ed6e38ed64bf6a1f010000000000000000838161173f5761173e6127a0565b5b0492506040810190505b6d04ee2d6d415b85acef81000000008310611786576d04ee2d6d415b85acef8100000000838161177c5761177b6127a0565b5b0492506020810190505b662386f26fc1000083106117b557662386f26fc1000083816117ab576117aa6127a0565b5b0492506010810190505b6305f5e10083106117de576305f5e10083816117d4576117d36127a0565b5b0492506008810190505b61271083106118035761271083816117f9576117f86127a0565b5b0492506004810190505b60648310611826576064838161181c5761181b6127a0565b5b0492506002810190505b600a8310611835576001810190505b80915050919050565b611848838361191b565b611855600084848461116b565b505050565b60008073ffffffffffffffffffffffffffffffffffffffff168373ffffffffffffffffffffffffffffffffffffffff161415801561191257508273ffffffffffffffffffffffffffffffffffffffff168473ffffffffffffffffffffffffffffffffffffffff1614806118d357506118d28484610c05565b5b8061191157508273ffffffffffffffffffffffffffffffffffffffff166118f983610d8b565b73ffffffffffffffffffffffffffffffffffffffff16145b5b90509392505050565b600073ffffffffffffffffffffffffffffffffffffffff168273ffffffffffffffffffffffffffffffffffffffff160361198d5760006040517f64a0ae920000000000000000000000000000000000000000000000000000000081526004016119849190611c39565b60405180910390fd5b600061199b83836000610de2565b9050600073ffffffffffffffffffffffffffffffffffffffff168173ffffffffffffffffffffffffffffffffffffffff1614611a0f5760006040517f73c6ac6e000000000000000000000000000000000000000000000000000000008152600401611a069190611c39565b60405180910390fd5b505050565b6000604051905090565b600080fd5b600080fd5b60007fffffffff0000000000000000000000000000000000000000000000000000000082169050919050565b611a5d81611a28565b8114611a6857600080fd5b50565b600081359050611a7a81611a54565b92915050565b600060208284031215611a9657611a95611a1e565b5b6000611aa484828501611a6b565b91505092915050565b60008115159050919050565b611ac281611aad565b82525050565b6000602082019050611add6000830184611ab9565b92915050565b600081519050919050565b600082825260208201905092915050565b60005b83811015611b1d578082015181840152602081019050611b02565b60008484015250505050565b6000601f19601f8301169050919050565b6000611b4582611ae3565b611b4f8185611aee565b9350611b5f818560208601611aff565b611b6881611b29565b840191505092915050565b60006020820190508181036000830152611b8d8184611b3a565b905092915050565b6000819050919050565b611ba881611b95565b8114611bb357600080fd5b50565b600081359050611bc581611b9f565b92915050565b600060208284031215611be157611be0611a1e565b5b6000611bef84828501611bb6565b91505092915050565b600073ffffffffffffffffffffffffffffffffffffffff82169050919050565b6000611c2382611bf8565b9050919050565b611c3381611c18565b82525050565b6000602082019050611c4e6000830184611c2a565b92915050565b611c5d81611c18565b8114611c6857600080fd5b50565b600081359050611c7a81611c54565b92915050565b60008060408385031215611c9757611c96611a1e565b5b6000611ca585828601611c6b565b9250506020611cb685828601611bb6565b9150509250929050565b600080600060608486031215611cd957611cd8611a1e565b5b6000611ce786828701611c6b565b9350506020611cf886828701611c6b565b9250506040611d0986828701611bb6565b9150509250925092565b611d1c81611b95565b82525050565b6000604082019050611d376000830185611d13565b8181036020830152611d498184611b3a565b90509392505050565b6000819050919050565b6000611d77611d72611d6d84611bf8565b611d52565b611bf8565b9050919050565b6000611d8982611d5c565b9050919050565b6000611d9b82611d7e565b9050919050565b611dab81611d90565b82525050565b6000602082019050611dc66000830184611da2565b92915050565b600060208284031215611de257611de1611a1e565b5b6000611df084828501611c6b565b91505092915050565b6000602082019050611e0e6000830184611d13565b92915050565b611e1d81611aad565b8114611e2857600080fd5b50565b600081359050611e3a81611e14565b92915050565b60008060408385031215611e5757611e56611a1e565b5b6000611e6585828601611c6b565b9250506020611e7685828601611e2b565b9150509250929050565b600080fd5b600080fd5b7f4e487b7100000000000000000000000000000000000000000000000000000000600052604160045260246000fd5b611ec282611b29565b810181811067ffffffffffffffff82111715611ee157611ee0611e8a565b5b80604052505050565b6000611ef4611a14565b9050611f008282611eb9565b919050565b600067ffffffffffffffff821115611f2057611f1f611e8a565b5b611f2982611b29565b9050602081019050919050565b82818337600083830152505050565b6000611f58611f5384611f05565b611eea565b905082815260208101848484011115611f7457611f73611e85565b5b611f7f848285611f36565b509392505050565b600082601f830112611f9c57611f9b611e80565b5b8135611fac848260208601611f45565b91505092915050565b60008060008060808587031215611fcf57611fce611a1e565b5b6000611fdd87828801611c6b565b9450506020611fee87828801611c6b565b9350506040611fff87828801611bb6565b925050606085013567ffffffffffffffff8111156120205761201f611a23565b5b61202c87828801611f87565b91505092959194509250565b600067ffffffffffffffff82111561205357612052611e8a565b5b61205c82611b29565b9050602081019050919050565b600061207c61207784612038565b611eea565b90508281526020810184848401111561209857612097611e85565b5b6120a3848285611f36565b509392505050565b600082601f8301126120c0576120bf611e80565b5b81356120d0848260208601612069565b91505092915050565b600080604083850312156120f0576120ef611a1e565b5b60006120fe85828601611c6b565b925050602083013567ffffffffffffffff81111561211f5761211e611a23565b5b61212b858286016120ab565b9150509250929050565b6000806040838503121561214c5761214b611a1e565b5b600061215a85828601611c6b565b925050602061216b85828601611c6b565b9150509250929050565b7f4e487b7100000000000000000000000000000000000000000000000000000000600052602260045260246000fd5b600060028204905060018216806121bc57607f821691505b6020821081036121cf576121ce612175565b5b50919050565b60006060820190506121ea6000830186611c2a565b6121f76020830185611d13565b6122046040830184611c2a565b949350505050565b60008151905061221b81611b9f565b92915050565b60006020828403121561223757612236611a1e565b5b60006122458482850161220c565b91505092915050565b7f4d65646963616c5265636f7264546f6b656e3a20596f7520617265206e6f742060008201527f616c6c6f77656420746f20766965772074686973207265636f72640000000000602082015250565b60006122aa603b83611aee565b91506122b58261224e565b604082019050919050565b600060208201905081810360008301526122d98161229d565b9050919050565b7f4d65646963616c5265636f72644e46543a2055524920717565727920666f722060008201527f6e6f6e6578697374656e7420746f6b656e000000000000000000000000000000602082015250565b600061233c603183611aee565b9150612347826122e0565b604082019050919050565b6000602082019050818103600083015261236b8161232f565b9050919050565b600081905092915050565b600061238882611ae3565b6123928185612372565b93506123a2818560208601611aff565b80840191505092915050565b60006123ba828561237d565b91506123c6828461237d565b91508190509392505050565b60008190508160005260206000209050919050565b60006020601f8301049050919050565b600082821b905092915050565b6000600883026124347fffffffffffffffffffffffffffffffffffffffffffffffffffffffffffffffff826123f7565b61243e86836123f7565b95508019841693508086168417925050509392505050565b600061247161246c61246784611b95565b611d52565b611b95565b9050919050565b6000819050919050565b61248b83612456565b61249f61249782612478565b848454612404565b825550505050565b600090565b6124b46124a7565b6124bf818484612482565b505050565b5b818110156124e3576124d86000826124ac565b6001810190506124c5565b5050565b601f821115612528576124f9816123d2565b612502846123e7565b81016020851015612511578190505b61252561251d856123e7565b8301826124c4565b50505b505050565b600082821c905092915050565b600061254b6000198460080261252d565b1980831691505092915050565b6000612564838361253a565b9150826002028217905092915050565b61257d82611ae3565b67ffffffffffffffff81111561259657612595611e8a565b5b6125a082546121a4565b6125ab8282856124e7565b600060209050601f8311600181146125de57600084156125cc578287015190505b6125d68582612558565b86555061263e565b601f1984166125ec866123d2565b60005b82811015612614578489015182556001820191506020850194506020810190506125ef565b86831015612631578489015161262d601f89168261253a565b8355505b6001600288020188555050505b505050505050565b7f4e487b7100000000000000000000000000000000000000000000000000000000600052601160045260246000fd5b600061268082611b95565b91507fffffffffffffffffffffffffffffffffffffffffffffffffffffffffffffffff82036126b2576126b1612646565b5b600182019050919050565b600081519050919050565b600082825260208201905092915050565b60006126e4826126bd565b6126ee81856126c8565b93506126fe818560208601611aff565b61270781611b29565b840191505092915050565b60006080820190506127276000830187611c2a565b6127346020830186611c2a565b6127416040830185611d13565b818103606083015261275381846126d9565b905095945050505050565b60008151905061276d81611a54565b92915050565b60006020828403121561278957612788611a1e565b5b60006127978482850161275e565b91505092915050565b7f4e487b7100000000000000000000000000000000000000000000000000000000600052601260045260246000fd5b60006040820190506127e46000830185611c2a565b6127f16020830184611d13565b939250505056fea2646970667358221220f961b31650626cdd89974b48d44dc2f9de7d5c5689fd93d22e3709b6b823ed8d64736f6c63430008140033",
  "linkReferences": {},
  "deployedLinkReferences": {}
}